:100000004BC0000071C000006FC000006DC0000058
:100010006BC0000069C0000067C0000065C0000040
:1000200063C0000061C000005FC000005DC0000050
:100030005BC000000C94402757C0000055C0000072
:100040000C94352B51C000000C943F2D0C94712D55
:100050004BC0000049C0000047C0000045C0000080
:1000600043C0000041C00000084AD73B3BCE016EB0
:1000700084BCBFFDC12F3D6C74319ABD56833DDAFF
:100080003D00C77F11BED9E4BB4C3E916BAAAABE0E
:10009000000000803F00962D11241FBECFEFD8E056
:1000A000DEBFCDBF16E1A0E0B1E0EEECFCE502C0A2
:1000B00005900D92A033B107D9F72AE1A0E3B6E18C
:1000C00001C01D92AD3CB207E1F710E0CCE4D0E0F6
:1000D00004C02197FE010E94362ECB34D107C9F708
:1000E0000E9428280C94652E8BCF90E080E0089524
:1000F0000F931F93009709F48AC06115710509F4E5
:1001000086C0009168151091691520916A1530918B
:100110006B150E3F1F4F2F4F3F4F09F06AC0DB0199
:100120004D915D916D917C91409368155093691547
:1001300060936A1570936B1540916815509169151D
:1001400060916A1570916B15DC011296ED91FC912E
:1001500080819181A281B3818093761790937717E4
:10016000A0937817B093791784819581A681B78180
:100170008093721790937317A0937417B0937517A9
:1001800080859185A285B38580936E1790936F17B4
:10019000A0937017B093711784859585A685B78550
:1001A00080936A1790936B17A0936C17B0936D1799
:1001B00010926617109267171092681710926917BD
:1001C0000E94030B88E29BE09093311680933016D7
:1001D00090933316809332160E94F209009731F4FF
:1001E00021E030E030937B1720937A171F910F9115
:1001F0000895009168151091691520916A15309144
:100200006B15FB01008311832283338395CF8FEF1E
:100210009FEFECCF8F929F92AF92BF92CF92DF92DF
:10022000EF92FF921F93CF93DF934B015C011091EC
:100230007D1782E090E090937B1780937A1781146A
:100240009104A104B10441F480917D17811104C08F
:1002500080917C17C1E08111C0E0C12CD12C7601C6
:1002600080917D17811106C080917C17811102C099
:10027000CC23D9F083E090E090937B1780937A179A
:10028000CC2381F1CCE9DFEF111102C00E948D0E69
:10029000CE01DF91CF911F91FF90EF90DF90CF9033
:1002A000BF90AF909F908F9008956AE070E080E0DB
:1002B00090E00E94A42B80E1C80E87E2D81EE11CCA
:1002C000F11C8FEF88169806A806B80631F0C1E039
:1002D0008C149D04AE04BF0408F0C0E080E00E94CE
:1002E000260ABECFD0E0C0E0CFCFCF92DF92EF9210
:1002F000FF920F931F93CF93DF938F3F910511F0E0
:1003000008F051C020917A1730917B1723303105C6
:1003100039F020917A1730917B172130310531F473
:1003200024E030E030937B1720937A176A017B0139
:10033000EC0182309105A8F011E0AE01C701B601D1
:100340000E94F109AB01BC01CE011123F9F0DF914C
:10035000CF911F910F91FF90EF90DF90CF900C9471
:10036000B2108C01000F111F005D194ED8018D9144
:100370009C91892B09F30E94BC100297E9F6D801E1
:10038000ED91FC91CE010995182FD7CF0E94D41082
:1003900090E080E0DF91CF911F910F91FF90EF905F
:1003A000DF90CF9008958FEF9FEFF4CF80E00C9413
:1003B000260ACF93DF9386E090E090937B1780939B
:1003C0007A170E947F0AEC01E0E3F6E184E0DF01A6
:1003D0001D928A95E9F70E94250E10927B171092C4
:1003E0007A17CE01DF91CF91089580917C170895FF
:1003F00080916517089560936815709369158093CF
:100400006A1590936B1590E080E0089560E070E0CD
:1004100080E89FE7089560E070E080E89FE7089536
:1004200060E070E080E89FEF089560E070E080E8B1
:100430009FEF089560E070E080EC9FEF089560E02A
:1004400070E080EC9FEF0895F5DF6093761A70936B
:10045000771A8093781A9093791AF1DF60936A1A69
:1004600070936B1A80936C1A90936D1ACFDF609320
:10047000721A7093731A8093741A9093751ACBDF63
:1004800060936E1A70936F1A8093701A9093711A1A
:10049000C7DF60937A1A70937B1A80937C1A9093CB
:1004A0007D1AC3DF60937E1A70937F1A8093801A3F
:1004B0009093811A0895CF92DF92EF92FF92CF939B
:1004C0006B017C01AC019B016091721A7091731AEF
:1004D0008091741A9091751A0E948129C1E0882335
:1004E00071F0A701960160917A1A70917B1A809140
:1004F0007C1A90917D1A0E9481298111C0E08C2F75
:10050000CF91FF90EF90DF90CF9008950F931F93BE
:100510008B019C010027112720783F7701151105D9
:1005200020483F4749F4AB01BC016F77772781E052
:10053000452B462B472B09F480E01F910F9108951E
:10054000E5CF8F929F92AF92BF92CF92DF92EF92C0
:10055000FF92CF93DF936B017C0149015A01F0DFD9
:10056000882399F06091761A7091771A8091781AA1
:100570009091791ADF91CF91FF90EF90DF90CF901B
:10058000BF90AF909F908F900895C501B401D8DFC0
:100590008111E8CFC701B6018EDF8823D9F1C501EB
:1005A000B40189DF8823B1F120E030E0A901C7015F
:1005B000B6010E94C42ACFEFDFEF181614F4C1E091
:1005C000D0E020E030E0A901C501B4010E94C42AB6
:1005D0006FEF7FEF181614F461E070E0072E000C47
:1005E000880B990B0E94EF296B017C01BE01DD0F86
:1005F000880B990B0E94EF29A7019601DF91CF91FB
:10060000FF90EF90DF90CF90BF90AF909F908F9032
:100610000C942E2920E030E0A901C501B4010E940C
:100620008129811116C020E030E0A901C701B6017F
:100630000E94C42A181694F020E030E0A901C701F6
:10064000B6010E94812987FD0EC060E070E0CB01F9
:1006500091CFA5019401C701B601D0CF6BED7FE02A
:1006600089EC9FE387CF6BED7FE089EC9FEB82CF36
:10067000E091D116F091D216A5E8BAE15C964D91C1
:100680005D916D917C915F97408351836283738309
:1006900090964D915D916D917C9193974483558394
:1006A0006683778394968D919D910D90BC91A02D3A
:1006B00080879187A287B38708952F923F924F92A8
:1006C0005F926F927F928F929F92AF92BF92CF92E2
:1006D000DF92EF92FF920F931F93CF93DF93CDB7EB
:1006E000DEB7AA970FB6F894DEBF0FBECDBF8091DC
:1006F0003C1790913D178130910509F073C36091CB
:1007000028177091291780912A1790912B176F5FE6
:100710007F4F8F4F9F4F0E94ED2920912C173091D2
:100720002D1740912E1750912F170E94CF2A6093BA
:100730005216709353168093541690935516009149
:10074000B31A1091B41AE090B11AF090B21A6091F5
:1007500030177091311780913217909133170E94A2
:10076000ED292DEC3CEC4CEC5DE30E94CF2A2B01F3
:100770003C01AC019B01D7016D917D918D919C91C4
:100780000E94C42A87FF8CC3A3019201F701EC5E8B
:10079000FA4F60817181828193810E9481291816AC
:1007A0000CF081C3E091BD1AF091BE1AFA83E9837F
:1007B0006F01CC0CDD1CCC0CDD1C5701AC0CBD1C3E
:1007C000A3019201D5016D917D918D919C910E9423
:1007D000C42AB4E0CB0ED11CCE0CDF1C18160CF0D2
:1007E00052C3F4E0AF1AB108A3019201D5011496E7
:1007F0006D917D918D919C9117970E94C42A181636
:100800000CF436C329813A813093BE1A2093BD1A65
:10081000220F331F220F331F3E832D83F901EE0D6C
:10082000FF1D80809180A280B380190134E0230EE7
:10083000311CF701E20DF31DC080D180E280F3800E
:10084000A7019601C501B4010E948129811144C309
:10085000A5019401C301B2010E94812987FF28C329
:100860008D819E81800F911F9A838983E5E8FAE14B
:1008700081E99AE1A981BA814D915D916D917C9157
:1008800013974193519361937193A85EBA4FBA83C2
:10089000A9838E179F0771F78091BF1A9091C01A94
:1008A000A091C11AB091C21A8093911A9093921A92
:1008B000A093931AB093941A8091C31A9091C41A7A
:1008C000A091C51AB091C61A8093951A9093961A62
:1008D000A093971AB093981A8091C71A9091C81A4A
:1008E000A091C91AB091CA1A8093991A90939A1A32
:1008F000A0939B1AB0939C1AC0906415D090651574
:10090000E0906615F090671520918D1A30918E1A3F
:1009100040918F1A5091901A6091851A7091861AA1
:100920008091871A9091881A0CDE9B01AC01C70157
:10093000B6010E94CF2A60939D1A70939E1A8093ED
:100940009F1A9093A01A1092A11A1092A21A1092B4
:10095000A31A1092A41A1092A51A1092A61A109215
:10096000A71A1092A81A1092A91A1092AA1A1092F5
:10097000AB1A1092AC1A80913C1790913D170197D9
:1009800059F440913017509131176091321770919E
:10099000331781E090E0A9DC80913C1790913D17DE
:1009A000019709F006C2E0918216F091831601903A
:1009B000F081E02D80819181A281B3818D8B9E8B0E
:1009C000AF8BB88F8091521690915316A091541608
:1009D000B09155168D8F9E8FAF8FB8A3E0915616AC
:1009E000F091571680809180A280B380E0918616A6
:1009F000F091871610810181E0914A16F0914B1613
:100A000020803180728063805480458096819B8FE6
:100A1000A781AC8FE0914816F0914916118210829F
:100A20008CE0E12FF02FD10101900D928A95E1F732
:100A3000E0918016F09181167082618219DE20E0CB
:100A400030E040E05FE3C501B4010E94CF2A6B01B2
:100A50007C013A8E298E7B8A6C8A198B0A8BF10174
:100A60003C96FE83ED8319A30AA379826A823A86B3
:100A70002986E985FA8581919191A191B191FA87B1
:100A8000E9878D879E87AF87B88BA981BA812D9121
:100A90003D914D915D91BA83A983C701B6010E9432
:100AA000CF2A2D853E854F8558890E94BB28E9A114
:100AB000FAA16193719381939193FAA3E9A32D8194
:100AC0003E8189859A852817390799F6E091821623
:100AD000F0918316A081B181BA83A983A701960101
:100AE0006D897E898F89988D0E94BB28E981FA8162
:100AF0006083718382839383E0918016F0918116E5
:100B000050824182DADDB4DD20E030E0A901C50188
:100B1000B4010E94CF2A69A37AA38BA39CA320E0EF
:100B200030E040E45FE3C501B4010E94CF2A6B01CD
:100B30007C0159824A8219A70AA709811A817D82FC
:100B40006E82F10181919191A191B1911F018D87E7
:100B50009E87AF87B88BAD81BE816D917D918D9160
:100B60009D91BE83AD83F801419051906190719049
:100B70008F0129A13AA14BA15CA10E94CF2A6DA3AC
:100B80007EA38FA398A7A7019601C301B2010E947B
:100B9000CF2A9B01AC016DA17EA18FA198A50E94D7
:100BA000BB282D853E854F8558890E94BB28A9A565
:100BB000BAA56D937D938D939D93BAA7A9A7E98557
:100BC000FA85E215F30509F0BCCFE0918216F091A9
:100BD0008316208131813E832D83A70196016D8983
:100BE0007E898F89988D0E94BB28AD81BE816D93CF
:100BF0007D938D939C931397E0918016F0918116CD
:100C0000BB8DB0832C8D218358DD32DD29E33EE896
:100C100043E65EE3C501B4010E94CF2A6D837E8363
:100C20008F8398872BEA3AEA4AEA5EE3C501B4016A
:100C30000E94CF2A6D8B7E8B8F8B988F29E33EE8A5
:100C400043EE5EE3C501B4010E94CF2A6D877E8723
:100C50008F87988B3B8D39A38C8D8AA3E98DFA8D74
:100C600081919191A191B191FA8FE98F89879A87AA
:100C7000AB87BC87AB89BC896D917D918D919D912E
:100C8000BC8BAB8BE981FA8141905190619071905E
:100C9000FA83E983A9A1BAA1CD90DD90ED90FD90F2
:100CA000BAA3A9A32D813E814F8158850E94CF2AE6
:100CB0004B015C012D893E894F89588DC301B201DA
:100CC0000E94CF2A9B01AC01C501B4010E94BB2840
:100CD0004B015C012D853E854F855889C701B601C2
:100CE0000E94CF2A9B01AC01C501B4010E94BB2820
:100CF00029853A854B855C850E94BB28E989FA895C
:100D00006193719381939193FA8BE98B298D3A8D3D
:100D10002216330609F0A2CFE0918216F0918316D5
:100D20000190F081E02D8D8D9E8DAF8DB8A18083D7
:100D30009183A283B383E0914816F091491681E034
:100D400090E0918380838091281790912917A0913A
:100D50002A17B0912B170196A11DB11D809328175A
:100D600090932917A0932A17B0932B1780915216AE
:100D700090915316A0915416B0915516E0913F17DB
:100D8000F091401780839183A283B38380913017C1
:100D900090913117A0913217B09133170196A11D90
:100DA000B11D8093301790933117A0933217B093F1
:100DB0003317AA960FB6F894DEBF0FBECDBFDF91F2
:100DC000CF911F910F91FF90EF90DF90CF90BF9048
:100DD000AF909F908F907F906F905F904F903F90DB
:100DE0002F900895892B99F4E0918216F091831643
:100DF0000190F081E02D80819181A281B381E09109
:100E00003F17F091401780839183A283B383809131
:100E1000BF1A9091C01AA091C11AB091C21A8093C2
:100E2000911A9093921AA093931AB093941A809166
:100E3000C31A9091C41AA091C51AB091C61A809392
:100E4000951A9093961AA093971AB093981A809136
:100E5000C71A9091C81AA091C91AB091CA1A809362
:100E6000991A90939A1AA0939B1AB0939C1A6BCDDF
:100E7000E981FA813197FA83E983B3CCE981FA8178
:100E80003196FA83E983D6016D917D918D919D9183
:100E90006D01A30192010E94812918167CF7B2CC42
:100EA0001A821982AFCCE4E4F1E0FA83E983AACC98
:100EB000020D131DE5E8FAE1D8014D915D916D91A8
:100EC0007C914193519361937193085E1A4FBAE1FB
:100ED000E139FB0789F7E0CCA3019201C701B60114
:100EE0000E94BA282B013C01A5019401C701B6015B
:100EF0000E94BA289B01AC01C301B2010E9485295E
:100F00004B015C01AC019B0160E070E080E89FE375
:100F10000E94BA2869837A838B839C83ED81FE814A
:100F2000E00FF11FFE83ED83020D131D85E8282ECF
:100F30008AE1382EAD81BE81CD90DD90ED90FC90A0
:100F4000F8014080518062807380A3019201C70143
:100F5000B6010E9481298823C1F0A7019601C5012D
:100F6000B4010E94CF2A6B017C01A3019201698127
:100F70007A818B819C810E94CF2A9B01AC01C701A1
:100F8000B6010E94BB286B017C01D101CD92DD929C
:100F9000ED92FD921D01ED81FE81E85EFA4FFE8328
:100FA000ED83085E1A4FA159BA4121F675CC0F9313
:100FB0001F93CF93DF9384E090E046DAE2E4F6E11A
:100FC000CCE3D7E1D783C6838FE397E19093831671
:100FD000809382160CE217E1158B048B21ED36E12C
:100FE00037AF26AF6BEC76E1709387166093861669
:100FF00020E237E1309385162093841622E237E110
:1010000030938916209388162DEC36E130938B1699
:1010100020938A162FEC36E130938D1620938C1690
:1010200043ED56E15093C9164093C816F093AD16A0
:10103000E093AC16F583E48321E030E03983288324
:101040001092C3161092CA1628E037E1A8EDB6E157
:10105000E901B983A883C4EED6E1D0930B17C093FE
:101060000A17C0EFD6E1D0930D17C0930C17CCEF41
:10107000D6E1D0930F17C0930E17CFEBDAE1DB0167
:10108000CD93DC9362E87AE1DA016D937C93109260
:101090003417109235171092361710923717318780
:1010A000208721E935E13387228721E437E1DC011C
:1010B0002D933C9340E050E060EF71E4409338178B
:1010C0005093391760933A1770933B174DEC5CECD3
:1010D0006CEC7DE3D8014D935D936D937C931397F6
:1010E00080E197E149E95CE46FEF7BEFDC014D9330
:1010F0005D936D937C9313974DE45EE36FE07BE724
:101100004093141750931517609316177093171781
:101110004BEA51E16BE879E840931817509319179F
:1011200060931A1770931B174EEB58E962E472E94B
:1011300040931C1750931D1760931E1770931F1731
:10114000A6E3B6E1B383A28324E336E111963C9390
:101150002E9326E935E1309335162093341626E296
:1011600037E115963C932E93149713969C938E9388
:1011700012974CE251E060E070E018964D935D9359
:101180006D937C931B97E1EBFAE188E490E1918306
:10119000808380E091E0938382831586148680911A
:1011A000601590916115A0916215B09163158883C7
:1011B0009983AA83BB838C839D83AE83BF838887F7
:1011C0009987AA87BB87DF91CF911F910F910895CF
:1011D00008954F925F926F927F928F929F92AF92FB
:1011E000BF92CF92DF92EF92FF920F931F93F894EA
:1011F0004090551750905617609057177090581799
:10120000C0904917D0904A17E0904B17F0904C17B8
:101210004130510509F0A6C09B01AC0124193509E4
:101220004609570929013A010091511710915217A7
:10123000209153173091541748015901840C951C83
:10124000A61CB71C80169106A206B306A0F4009156
:101250004D1710914E1720914F17309150170F5F77
:101260001F4F2F4F3F4F00934D1710934E17209352
:101270004F17309350178092511790925217A092A7
:101280005317B092541700914D1710914E1720919B
:101290004F17309150178092591790925A17A09279
:1012A0005B17B0925C1700935D1710935E17209345
:1012B0005F1730936017609355177093561780939C
:1012C000571790935817A301920160EA76E881E0DE
:1012D00090E00E94F12D6C0D7D1D8E1D9F1D609371
:1012E000491770934A1780934B1790934C170091AE
:1012F00068151091691520916A1530916B150F3F93
:101300001F4F2F4F3F4FF1F0009168151091691555
:1013100020916A1530916B150E3F1F4F2F4F3F4F95
:1013200089F0C0906815D0906915E0906A15F0902A
:101330006B1521E08C149D04AE04BF0408F420E07A
:101340002093651778941F910F91FF90EF90DF9095
:10135000CF90BF90AF909F908F907F906F905F9055
:101360004F9008954B015C0184189508A608B708B2
:10137000A3019201261B370B480B590B6415750509
:1013800086059705E0F082169306A406B50640F49C
:1013900020E030E0A90181149104A104B104A1F47A
:1013A00060EA76E881E090E00E94F12DA7019601C5
:1013B000261B370B480B590BCA01B901C3CF821644
:1013C0009306A406B50660F7A501940160EA76E8E5
:1013D00081E090E00E94F12D6C0D7D1D8E1D9F1D02
:1013E000B1CFF7CECF93DF9300D000D0CDB7DEB72B
:1013F0001C821B821A821982109261171092621746
:101400001092631710926417BE016F5F7F4FCE0179
:1014100003960E94EA2669817A818B819C810E94D1
:10142000DC1F009761F4BE016F5F7F4FCE01039612
:101430000E94F62669817A818B819C8129D50F9043
:101440000F900F900F90DF91CF910895FF920F931F
:101450001F93CF93DF93082F60E070E0CB010E94D1
:10146000A42BFF24F3940E94C71EEC01892B89F062
:1014700010E0CE3F8FEFD80769F0002361F160E004
:1014800070E0CB010E94A42B81E090E0892B59F3FE
:1014900022C011E020D5EC01892B21F0CE3F8FEF47
:1014A000D80759F711111EC011E0229609F410E077
:1014B0000E94781EEC01892B21F0CE3F8FEFD807D8
:1014C000E1F6111111C011E0CE3F8FEFD80709F4FA
:1014D00010E001110BC0CE01DF91CF911F910F9150
:1014E000FF90089511E0E4CF11E0F3CF60E070E0E9
:1014F000CB010E94A42B1F25812F90E0C7CFCF9353
:10150000DF9380916517882321F060E070E0CB01C4
:1015100049D632D6D0E0C0E0892B71F06AE070E0A5
:1015200080E090E00E94A42B81E090DF25D62196F8
:10153000C03727E1D20781F724D60E9430201092CD
:101540007D1710927C1710927617109277171092D1
:1015500078171092791710927217109273171092D1
:1015600074171092751710926E1710926F171092D1
:1015700070171092711710926A1710926B171092D1
:101580006C1710926D1710926617109267171092D1
:101590006817109269174EEF5FEF6FEF7FEF409380
:1015A00068155093691560936A1570936B151092C6
:1015B0006517E9E5F7E128E0DF011D922A95E9F7D3
:1015C00010925517109256171092571710925817DD
:1015D00010925117109252171092531710925417DD
:1015E00010924D1710924E1710924F1710925017DD
:1015F0001092491710924A1710924B1710924C17DD
:10160000DF91CF9108951092891710928A17109246
:101610008B1710928C1710928817809191179091C8
:1016200092179093871780938617109285171092C0
:1016300084171092801710928117109282171092BF
:10164000831710928E1710928D1790E080E0089506
:10165000CF92DF92EF92FF920F931F93CF938C0163
:10166000019709F055C02091911730919217809100
:101670008617909187174091911750919217509328
:101680008717409386172817390781F0109285171E
:10169000109284171092801710928117109282175F
:1016A0001092831710928E1710928D1780919117B8
:1016B00090919217019761F580918D1790918E17F7
:1016C000892B21F480916C15811112C080918D17A6
:1016D00090918E170197E1F4809180179091811776
:1016E000A0918217B09183170197A105B10581F4EC
:1016F0001092801710928117109282171092831700
:1017000010926C1582E090E090938E1780938D1765
:101710008091911790919217019709F01CC18091C7
:10172000A7179091A8178017910709F014C180910D
:10173000A3179091A417A091A517B091A617009791
:1017400009F409C12091A21721110DC04091A317DE
:101750005091A4176091A5177091A617452B462BA1
:10176000472B09F4F8C020918D1730918E17223045
:10177000310509F0F0C0209184172111ECC0FC0163
:10178000C080D180E280F38080918817882309F49B
:10179000D3C08091941790919517892B09F4FEC0BE
:1017A000209194173091951781E02230310509F08E
:1017B00080E02091941730919517C1E021303105D8
:1017C00049F02091941730919517C1E022303105EE
:1017D00009F0C0E0882309F456C020919E1730918B
:1017E0009F174091A0175091A117C701B6010E9401
:1017F000C42A87FD14C020919E1730919F174091F5
:10180000A0175091A1176091891770918A17809144
:101810008B1790918C170E94812987FD22C02091FF
:101820009E1730919F174091A0175091A117C701A3
:10183000B6010E94C42A181634F520919E173091E3
:101840009F174091A0175091A1176091891770912F
:101850008A1780918B1790918C170E948129811192
:1018600012C08091961790919717A0919817B091F8
:101870009917892B8A2B8B2B19F481E0809385177C
:1018800081E080938417CC2309F456C020919E17E1
:1018900030919F174091A0175091A117C701B60131
:1018A0000E94812987FF14C020919E1730919F17B5
:1018B0004091A0175091A1176091891770918A17D4
:1018C00080918B1790918C170E94C42A87FF22C0A9
:1018D00020919E1730919F174091A0175091A1170A
:1018E000C701B6010E948129811126C020919E174F
:1018F00030919F174091A0175091A11760918917BF
:1019000070918A1780918B1790918C170E94C42A2E
:10191000181694F48091961790919717A0919817A4
:10192000B0919917892B8A2B8B2B19F481E0809326
:10193000851781E08093841781E09091841791113D
:1019400080E080938817C0928917D0928A17E0921E
:101950008B17F0928C170130110509F067C1809147
:101960008D1790918E17892BD9F41092931710929E
:10197000841780916C15882379F082E090E0909331
:101980008E1780938D1710926C15209191173091BE
:10199000921781E0232BE9F080E01BC081E009CFA2
:1019A00010926C1580919317882349F01092851737
:1019B00010928E1710928D1710929317EDCF809181
:1019C000911790919217892BE1F0809184171092D2
:1019D000841720918D1730918E172230310509F42C
:1019E0005EC088F42115310509F448C02130310565
:1019F00009F4F3C010928517109284171092931770
:101A000038C081E0E6CF2330310509F4B1C024307D
:101A1000310581F7409180175091811760918217AD
:101A200070918317411551056105710561F04150B1
:101A30005109610971094093801750938117609390
:101A4000821770938317409180175091811760918E
:101A5000821770918317452B462B472BD9F4209181
:101A60008F17309190172130310509F046C0109240
:101A7000851710928E1710928D170CC080916C15DF
:101A8000882341F082E090E090938E1780938D1729
:101A900010926C1510927E1780918517CEC0882306
:101AA000C9F38091961790919717A0919817B091CC
:101AB0009917181619061A061B060CF07DC080919E
:101AC000911790919217019709F076C0809196171F
:101AD00090919717A0919817B091991780938017BC
:101AE00090938117A0938217B093831783E090E0BF
:101AF00090938E1780938D17CDCF40919A17509168
:101B00009B1760919C1770919D17452B462B472B77
:101B1000A9F01092851780919A1790919B17A09128
:101B20009C17B0919D178093801790938117A09375
:101B30008217B093831781E090E0DACF882399F081
:101B400080916D1590916E15A0916F15B0917015E3
:101B50008093801790938117A0938217B093831777
:101B600084E090E0C5CF1092851782E090E0C0CF6E
:101B70008091801790918117A0918217B09183175F
:101B80000097A105B10559F00197A109B10980930A
:101B9000801790938117A0938217B0938317809139
:101BA000801790918117A0918217B0918317892B8C
:101BB0008A2B8B2B09F06ECF80916D1590916E154D
:101BC000A0916F15B0917015892B8A2B8B2B09F47E
:101BD0004ECF81E080938517B3CF4091801750910D
:101BE0008117609182177091831741155105610526
:101BF000710561F0415051096109710940938017E5
:101C000050938117609382177093831740918017C8
:101C1000509181176091821770918317452B462B45
:101C2000472B09F037CF8111C7CF9FCF80917E1707
:101C3000882309F431CF80917F17CF911F910F91A5
:101C4000FF90EF90DF90CF90089510928917109237
:101C50008A1710928B1710928C1710928817109277
:101C60008E1710928D171092871710928617109268
:101C7000A8171092A7171092851710928417109228
:101C8000801710928117109282171092831710926A
:101C90007F1710927E171092A3171092A41710921C
:101CA000A5171092A6171092A21710929E171092C5
:101CB0009F171092A0171092A11788EE93E0A0E052
:101CC000B0E080936D1590936E15A0936F15B0934F
:101CD000701510929A1710929B1710929C171092E1
:101CE0009D171092961710929717109298171092AE
:101CF0009917109295171092941781E080936C15A4
:101D000010929317109292171092911710929017A9
:101D100010928F1790E080E0089580919117909134
:101D20009217892BE1F480916C15882351F08091F2
:101D30009317811106C081E080937F1780937E17EF
:101D4000089580919317882341F080916C1581113B
:101D500004C010927F1781E0F1CF10927E17089592
:101D600082E090E0FA01918380838FEF9FEF0895E6
:101D7000CF93DF93EA01009711F00E94502119825E
:101D8000188290E080E0DF91CF910895DB01009709
:101D900019F48FEF8C9308952EEF2C934096803199
:101DA000910508F036C0FC01E852F14F0C94362E34
:101DB000070F050F030F010FFF0EFD0EF90EFB0EAF
:101DC000F70EF50EF30EF00EEC0EE80EEE0E090F08
:101DD00080E311968C93089589E2FBCF82E2F9CFDC
:101DE00011961C92089583E2F4CF81E2F2CF81E153
:101DF000F0CF87E2EECF8AE2ECCF80E1EACF84E257
:101E0000E8CF88E2E6CF86E2E4CF81E3E2CF83E366
:101E1000E0CF80E2DECF8091B5179091B61708959C
:101E20009093B6178093B51708958091B4170895CD
:101E30009091B417892B8093B4170895982F90959B
:101E40008091B41789238093B41708958091B317B4
:101E500008958091B1179091B21708956115710599
:101E600059F0FB0130E020E070E060E02417350716
:101E700019F06115710511F0CB010895A081B181B0
:101E8000A817B90709F4BF012F5F3F4F3696EECF71
:101E90008091B71781111CC062D268D29093AA17A3
:101EA0008093A9170E9452190E9464199093AE174B
:101EB0008093AD170E94E21D0E94E91D9093AC171C
:101EC0008093AB1781E08093B71790E080E008958E
:101ED00084EF9FEF08958F929F92AF92BF92CF921F
:101EE000DF92EF92FF920F931F93CF93DF93CDB7C3
:101EF000DEB72A970FB6F894DEBF0FBECDBF1A86A5
:101F0000198618861F821E821D821C821B821A82DD
:101F100019828091B71707EF1FEF882309F49CC03F
:101F20008E010D5F1F4F9E012B5F3F4FAE01495F3A
:101F30005F4FBE01675F7F4F90E080E00E94621FAD
:101F40008C01009721F00596029708F0DBC02985E7
:101F50003A852115310509F402C1ED80FE804B81DF
:101F60005C81B701640F751F8F819885861797076D
:101F700008F4F5C0E20EF31ED7019C91903C09F0E5
:101F80007FC04230510508F47BC011968C9140917E
:101F9000B5175091B617452B09F49CC0913F08F036
:101FA00071C02CE1290F2D3008F48BC02DE2290FD0
:101FB000203108F489C0903C21F48150823008F42B
:101FC00083C088E3890F8B3008F481C096ECC92E5A
:101FD0009EE0D92EE0EBFEE06D817E81AE014F5F89
:101FE0005F4F89859A8509955C01C114D104A1F1DF
:101FF00089809A808114910479F18B819C81881564
:10200000990508F487C010E000E04B815C8170E026
:1020100060E0C7010E945E2E01151105E9F44981B7
:102020005A8169857A858D819E81680F791FC501E6
:10203000F6010995E980FA800D811E812F8138858E
:1020400049855A856FEF7FEF81E090E00E94FE1E88
:102050008C01892B09F056C0C8012A960FB6F89456
:10206000DEBF0FBECDBFDF91CF911F910F91FF90CB
:10207000EF90DF90CF90BF90AF909F908F9008959A
:1020800080E085CF30E020E0220F331FF901E755D3
:10209000F84E0190F081E02D309709F497CF892F09
:1020A00090E00995009709F491CFDC011296ED912B
:1020B000FC9113971496CD90DC90309709F08CCF5B
:1020C0001FC021E030E0E0CF22E030E0DDCF23E0B0
:1020D00030E0DACFD12CC12CE8EBFEE09F3F09F0D5
:1020E0007BCFE091A917F091AA17309721F4C9018D
:1020F00004EF1FEF0CC08FEF90E009950097A9F651
:1021000004EF1FEF89859A85009709F4A5CF0E94F7
:102110005021A2CF0E942B208C0189859A850E9494
:10212000502170E060E0C4010E94C41F98878F8333
:102130000E94FB1E9E838D836F81788561157105DA
:1021400059F0C8010E94DC229A87898706EF1FEFA9
:10215000892B09F058CF59CF08EF1FEF56CF08EF62
:102160001FEFD0CF2091B717222319F020E00C9455
:10217000691987EF9FEF08958091B5179091B61771
:1021800008950E94EE1D0E94481DF5D0E9EAF7E18E
:1021900088E0DF011D928A95E9F71092B71790E069
:1021A00080E008950C94A51B21E040E050E0BA01C6
:1021B0000C94691986E090E0FA019183808390E0A5
:1021C00080E0089547E050E069E975E147CEDF928D
:1021D000EF92FF920F931F93CF93DF938A01EC014D
:1021E000C60FD71FE090BB17F090BC17D9800E9494
:1021F0001320D816190678F082E090E0F801918358
:1022000080838EEF9FEFDF91CF911F910F91FF9011
:10221000EF90DF900895EF2841F482E090E0F8011C
:102220009183808384EF9FEFEECF89818093BA17EB
:1022300090E00196F8019183808390E080E0E3CF05
:10224000CF93DF93EA010E94561C882321F00E945D
:1022500020200E94571C82E090E0998388838BEFB6
:102260009FEFDF91CF910895CF93DF93EB0186E04D
:10227000FB0111928A95E9F78FEF8883D6DD898378
:10228000E5DD8A83E6DD9D838C83DF91CF91089520
:10229000CF93DF93EA010E94591C811109C082E0AB
:1022A00090E09983888385EF9FEFDF91CF91089528
:1022B00090E080E0B5DD81E090E09983888390E054
:1022C00080E0F3CF0F931F93CF93DF93EA018C014C
:1022D000060F171F0E94591C81110BC082E090E06D
:1022E0009983888385EF9FEFDF91CF911F910F91A5
:1022F0000895F8018181823038F082E090E099837E
:1023000088838EEF9FEFF0CF81E090E089DD88E059
:1023100090E09983888390E080E0E6CFCF93DF93CD
:102320000097D1F4EB01FB01329686E0DF011D92AC
:102330008A95E9F78FEF888385E089831A820E9466
:1023400013208B830E9412209D838C8381E08E83D7
:102350008F83DF91CF910895DF91CF9117CD82EEDA
:1023600090E19093B9178093B81708958091B817AA
:102370009091B91708951092B9171092B81708954F
:102380008091BB179091BC170895411105C061154C
:1023900071058105910561F06093BB177093BC17BF
:1023A0008093BD179093BE174093BF1781E00895A7
:1023B00080E00895FF920F931F93CF93DF938A01DC
:1023C000EC01C60FD71FF9800E941320F8161906DA
:1023D00068F082E090E0F801918380838EEF9FEFB8
:1023E000DF91CF911F910F91FF9008956C817D81B6
:1023F0008E819F814B81C9DF811108C082E090E00E
:10240000F8019183808384EF9FEFEACF89818093E5
:10241000BA1790E00196F8019183808390E080E004
:10242000DFCFCF93DF93EA01FC01E60FF71F648152
:102430007581868197814381A8DF811109C082E07F
:1024400090E09983888384EF9FEFDF91CF91089587
:1024500081E090E09983888390E080E0F6CFEBEB19
:10246000F7E14081518162817381480F511D611DE7
:10247000711D40835183628373830895CF93C0910C
:10248000BA174C2F50E06091BB177091BC170196A2
:102490000E94552E8C2FE3DF1092BA17CF9108952A
:1024A000009799F48091BB179091BC172FEFFB0117
:1024B0002083892B59F02091BA1730E02F5F3F4FCE
:1024C0002417350719F4CB01D9CF60CC08950097B4
:1024D00099F48091BB179091BC172FEFFB012083DB
:1024E000892B59F02091BA1730E02F5F3F4F241706
:1024F000350719F4CB01C2CF49CC089523E1AC01D3
:10250000249FC001259F900D1124E091C417F091E4
:10251000C517E80FF91F238134812250310981E06A
:102520002230310508F080E008950F931F93CF9378
:10253000DF930091C6171091C717D0E0C0E080E08C
:102540000C171D0749F491E0811190E0892FDF916C
:10255000CF911F910F9108958111F5CFCE01CEDF5C
:102560002196EECFA091C417B091C517109729F10D
:102570002091C6173091C71782179307F0F453E1E3
:10258000589F9001599F300D1124A20FB31FED9158
:10259000FC911197309789F012968C91681768F426
:1025A0008DE0689FE00DF11D112480819181892BC0
:1025B00021F081E09281491708F080E008959C01A4
:1025C00043E1429FC001439F900D1124E091C41745
:1025D000F091C517E80FF91F8385823091F481E0EF
:1025E00090E0658176814091711550917215641764
:1025F000750711F490E080E0892B19F081E0232B1E
:1026000009F080E00895FC01A081B1818DE0689F10
:10261000A00DB11D112413964D915C918585968571
:10262000489F9001499F300D589F300D1124C901DA
:102630000196611103C0478144FD04960895EF920D
:10264000FF920F931F93CF93DF93EA01FC01E60FF4
:10265000F71F02811381E480F5804F2D6E2DC80194
:1026600081DF81110DC082E090E0998388838EEF35
:102670009FEFDF91CF911F910F91FF90EF90089501
:10268000C8013CDF882339F082E090E09983888399
:1026900088EF9FEFEECF1093781500937715E092B7
:1026A0007915F0927A1581E090E09983888390E023
:1026B00080E0DFCFCF92DF92EF92FF920F931F93D4
:1026C000CF93DF937A01EC01C60FD71FC090771527
:1026D000D09078150091791510917A15412F602FBF
:1026E000C60140DF811110C082E090E0F7019183C4
:1026F00080838AEF9FEFDF91CF911F910F91FF9021
:10270000EF90DF90CF900895C601F8DE882341F066
:1027100082E090E0F7019183808388EF9FEFEBCF19
:102720004C815D816E817F819A8189818F3F41F0EB
:1027300082E090E0F701918380838EEF9FEFDBCF03
:10274000E3E1EC9D9001ED9D300D1124E091C41763
:10275000F091C517E20FF31F0190F081E02D2DE0FD
:10276000029FE00DF11D11240190F081E02D27E082
:10277000129FE00DF11D1124808391838B81828350
:1027800043835483658376831F5F10937A1581E0BA
:1027900090E0F7019183808390E080E0ACCFEF92EE
:1027A000FF920F931F93CF93DF937A018C01060F53
:1027B000171FC091C417D091C517209781F021E051
:1027C00030E0F801828193814091C6175091C7177C
:1027D0008417950710F030E020E0232B71F482E09D
:1027E00090E0F701918380838EEF9FEFDF91CF918F
:1027F0001F910F91FF90EF90089543E1489F900142
:10280000499F300D1124C20FD31F78DE882341F079
:1028100082E090E0F7019183808388EF9FEFE6CF1D
:10282000F8012481358120383105C8F6878181116E
:10283000D6CF4181842F90E08F7E009741F082E0D7
:1028400090E0F7019183808386EF9FEFCFCF4F8396
:102850003E832D83268128871986223010F421E0BB
:10286000288721E030E0F70131832083BFCF88E063
:1028700090E0FA019183808390E080E00895FB016D
:102880008FEF808381E181838FEF9FEF938382833A
:1028900080E890E095838483168217820895FB0177
:1028A0008FEF808391E0918382839383848384E399
:1028B000858381E090E097838683089582E090E0AD
:1028C000FA019183808380EF9FEF0895DF92EF926A
:1028D000FF920F931F93CF93DF93EA01FC01E60F62
:1028E000F71F8181813071F082E090E099838883C5
:1028F0008FEF9FEFDF91CF911F910F91FF90EF909E
:10290000DF90089582819381D4802581E680F780CD
:102910000091C4171091C5170115110539F482E013
:1029200090E0998388838CEF9FEFE4CF4091C617A6
:102930005091C7178417950738F082E090E099838B
:1029400088838EEF9FEFD6CF892B39F082E090E01D
:102950009983888386EF9FEFCDCF8D2D8D7FB1F743
:102960002130A1F781E0D11006C091E0E916F10411
:1029700031F080E004C0E2E0EE16F104D0F38823E9
:1029800029F390E080E0BADD882339F082E090E01E
:102990009983888388EF9FEFADCFF801D38681E0DC
:1029A0008487F686E586108A178681E090E0998311
:1029B000888390E080E09ECF4DE050E063EC75E1CD
:1029C0004DCA8F929F92BF92CF92DF92EF92FF9269
:1029D0000F931F93CF93DF93EA01FC01E60FF71FDC
:1029E000828193810481B580E091C417F091C5176D
:1029F000309791F482E090E0998388838CEF9FEF89
:102A0000DF91CF911F910F91FF90EF90DF90CF90CA
:102A1000BF909F908F9008952091C6173091C7174F
:102A20008217930738F082E090E0998388838EEFD5
:102A30009FEFE6CF23E1289F6001299FD00C11244E
:102A4000EC0DFD1DE080F180E114F10499F282812A
:102A5000081748F78DE0089F80011124E00EF11E51
:102A6000F70180819181892B29F6BB20E1F2F7E003
:102A7000BF9E40011124C4010E941721F7019183D8
:102A80008083E091C417F091C517EC0DFD1D0190F6
:102A9000F081E02DE00FF11F80819181009739F4E2
:102AA00082E090E0998388838DEF9FEFA9CFA40106
:102AB00070E060E00E945E2E8091C4179091C5176F
:102AC000C80ED91EF60180819181080F191FF801E7
:102AD000B28281E090E09983888390E080E090CF9B
:102AE000AF92BF92CF92DF92FF920F931F93CF933B
:102AF000DF93EA01FC01E60FF71F82819381F480E6
:102B00000091C4171091C5170115110581F482E0D9
:102B100090E0998388838CEF9FEFDF91CF911F9195
:102B20000F91FF90DF90CF90BF90AF9008952091CC
:102B3000C6173091C7178217930738F082E090E0EC
:102B4000998388838EEF9FEFE8CF2FEF2F0D2C3FD7
:102B5000A8F723E1289F6001299FD00C11240C0DB8
:102B60001D1DF80180819181892B89F6FDE0FF9E72
:102B700050011124C5010E941721F801918380831F
:102B8000E091C417F091C517EC0DFD1D8081918176
:102B9000009739F482E090E0998388838DEF9FEF6E
:102BA000BCCFA50170E060E00E945E2EE091C417EA
:102BB000F091C517EC0DFD1DF28281E090E0998344
:102BC000888390E080E0A9CFCF92DF92EF92FF92CE
:102BD0000F931F93CF93DF93860F971FFC01028102
:102BE00013818091C4179091C517892B81F082E0E1
:102BF00090E0FA01918380838CEF9FEFDF91CF917A
:102C00001F910F91FF90EF90DF90CF900895C80132
:102C1000B0E0A0E00197A109B1098F3F9F4FA10546
:102C2000B10540F082E090E0FA01918380838EEF5D
:102C30009FEFE4CF7A0183E1809F6001819FD00CF8
:102C40001124C6010E941721EC01009741F482E093
:102C500090E0F701918380838DEF9FEFCFCFA601A6
:102C600070E060E00E945E2ED093C517C093C41739
:102C70001093C7170093C61790E080E02FEF3FEF47
:102C800041E061E070E08017910741F481E090E05D
:102C9000F7019183808390E080E0B0CF3A8B298B5D
:102CA0001B864C877E876D87188A1F8601966396E0
:102CB000EACFEF92FF921F93CF93DF93EC0110E0E6
:102CC000F12CE12C6A811617A8F070E0660F771FCF
:102CD000AE014F5E5F4FC7010E947C21009721F03B
:102CE0002FEF3FEF3A8B298BDF91CF911F91FF9010
:102CF000EF900895612FCE0186DC61E070E00E94C4
:102D0000C41FE816F90608F47C011F5FDBCFF894B6
:102D10002091C2173091C31781E02115310509F0C8
:102D200080E0232B09F0789408952F923F924F92E0
:102D30005F926F927F928F929F92AF92BF92CF924B
:102D4000DF92EF92FF920F931F93CF93DF933C019B
:102D5000660E771EF301828193814C01B12CA12C68
:102D6000C091C417D091C517209769F021E030E0D9
:102D70006091C6177091C7178617970710F030E05B
:102D800020E0232BD1F482E090E0FA01918380834C
:102D90008EEF9FEFDF91CF911F910F91FF90EF90FA
:102DA000DF90CF90BF90AF909F908F907F906F906B
:102DB0005F904F903F902F90089580927B15909256
:102DC0007C15A0927D15B0927E1563E1689F9001FD
:102DD000699F300D1124C20FD31FF301818183300D
:102DE00040F082E090E0FA019183808386EF9FEFCC
:102DF000D1CF2A012B813C81232BF1F42881398109
:102E00009F8191FF2EC0232B09F46FC02091C91719
:102E10009A81422F490F5527551FBA0141E050E0D2
:102E20006138710514F050E040E0452B09F45DC0B5
:102E30002A87920F9093C9178150823008F481C07D
:102E400066DF882309F4D8C0F3018181813009F459
:102E50008DC008F47BC0823009F4C6C090E080E0E9
:102E6000ADC0232B09F441C02091C8179A81E22FED
:102E7000E90FFF27FF1F41E050E0ED3FF10514F09F
:102E800050E040E0452B89F12A87920F9093C817B4
:102E9000D3CFA081B181A20FB31F11966C91060F01
:102EA000111D0196295F3F4F8417950794F38D8577
:102EB0009E85089F1001099F300C189F300C11242B
:102EC000C114D104D1F48F8184FF17C00E94122055
:102ED000F5E02F0E311C21E08215930508F420E067
:102EE000A701435F5F4F21110EC082E090E0F20125
:102EF0009183808387EF9FEF4DCF0E9412202FEFA9
:102F0000221A320AE8CF88819981E80EF91EF7016A
:102F100014830383FFEFCF1ADF0A7A018A818C15AD
:102F20001D0409F00CF48CCFE881F981EE0DFF1D32
:102F3000428150E030E020E010E000E090E080E0EE
:102F4000B3CFF12CE12CD12CC12CE8CF81E090E063
:102F50009C838B83EADA882309F480CF81E090E0B8
:102F60000E94100F80E40E941E0F78CF89899A89F1
:102F7000019661F083E090E09C838B8382E090E097
:102F80000E94100F80E40E94180F68CF8D819E81EF
:102F9000209171153091721582179307D1F46091C9
:102FA000751570917615AE014F5E5F4F8091731568
:102FB000909174150E949B220097E1F2789422E090
:102FC00030E0F20131832083892B99F08DEF9FEF60
:102FD000E1CE89288A288B2869F6029758F6CE0117
:102FE00068DE188A1F86E8CF82E090E09C838B839E
:102FF00035CF90E080E0CECE82E090E0F201918388
:10300000808385EF9FEFC6CE8F929F92AF92BF9243
:10301000CF92DF92EF92FF920F931F93CF93DF93A4
:10302000EA018C01060F171FF8018181833098F0A7
:1030300082E090E09983888386EF9FEFDF91CF91C4
:103040001F910F91FF90EF90DF90CF90BF90AF90C6
:103050009F908F9008958091C4179091C517892BE8
:1030600061F081E090E02091C6173091C717232BC3
:1030700011F490E080E0892B39F482E090E09983AC
:1030800088838EEF9FEFDACF42DE882309F4E0C019
:10309000F8018181813009F496C0E8F0823099F41A
:1030A0002091C6173091C717E091C417F091C5174A
:1030B00090E080E041E050E02817390709F0BEC0F9
:1030C00034DA811117C0789481E090E09983888385
:1030D00090E080E0B3CF2091C6173091C717E09100
:1030E000C417F091C51790E080E041E050E0281748
:1030F000390741F481E090E00E94100F80E40E94C3
:103100001E0FE1CF63817481672B11F054834383D9
:1031100001967396ECCFE091C417F091C517E00FBC
:10312000F11F2381348122303105D9F4218932897C
:103130002F3F3F4FB1F42581368140917115509159
:1031400072152417350761F5AF014F5E5F4F60912F
:1031500075157091761580917315909174150E9474
:103160009B22EFEFCE1ADE0AEE0AFE0A0D5E1F4F1B
:103170004091C6175091C71770E060E0C416D5069D
:10318000E606F70644F5009731F27894892B09F4A6
:103190009BCF82E090E0998388838DEF9FEF4ECFA5
:1031A000C114D104E104F104E1F622303105C8F67E
:1031B000CF017FDDE091C417F091C517E00FF11F3B
:1031C000108A1786CECF10E000E090E080E0C12C9E
:1031D000D12C7601CDCF0097C1F610E000E0812C14
:1031E000912C540183E0E82EF12C1AC0E091C41711
:1031F000F091C517E00FF11F83819481029749F484
:10320000F482E38282E090E00E94100F80E40E944A
:10321000180FFFEF8F1A9F0AAF0ABF0A0D5E1F4FEC
:103220008091C6179091C717B0E0A0E08816990664
:10323000AA06BB06DCF290E080E0A7CF6381748130
:103240006230710511F4548343830196739634CF31
:1032500082E090E09983888385EF9FEFEFCE00971F
:10326000B9F48FEFFB01808320917B1530917C15A1
:1032700043E1429FC001439F900D1124E091C41788
:10328000F091C517E80FF91F8285FB01818308952E
:103290000C94C60E88E090E0FA019183808390E060
:1032A00080E008951092C3171092C217E4ECF7E182
:1032B00086E0DF011D928A95E9F78CED94E1909309
:1032C000C1178093C01708958091C0179091C117BE
:1032D00008952F923F924F925F926F927F928F92BA
:1032E0009F92AF92BF92CF92DF92EF92FF920F9395
:1032F0001F93CF93DF93CDB7DEB72F970FB6F89418
:10330000DEBF0FBECDBFF894E091C217F091C31796
:103310003196F093C317E093C21778944090C41786
:103320005090C5174114510409F40CC2E091C6171E
:10333000F091C717EF2B09F405C22D8749875A87EB
:103340006B877C8798878F831201B12CA12C10E0AA
:1033500000E08091C6179091C717A816B90618F417
:103360000115110529F1F8948091C2179091C317A6
:1033700001979093C3178093C2177894C8012F9632
:103380000FB6F894DEBF0FBECDBFDF91CF911F9176
:103390000F91FF90EF90DF90CF90BF90AF909F90F4
:1033A0008F907F906F905F904F903F902F900895F7
:1033B0007101E418F508D10117968C91179781FDDA
:1033C00054C013968D919C911497039709F04DC0AA
:1033D00015968D919C91EF81F8858E179F0709F0C6
:1033E00044C0B50190E080E07ED48A832091C41768
:1033F0003091C5173D832C833D85332309F44CC0A0
:103400004C815D81452B09F49AC18091C61790913A
:10341000C717A816B90608F092C1C501D0D88823ED
:10342000E9F06C817D816E0D7F1D7D836C83DB01F6
:103430001F968D919C91892B89F0D12CC12CF12C58
:10344000E12CAC81BD8112968C9112978E151F04D0
:1034500009F094F450961C921E921F972A81222301
:1034600021F0B50190E080E040D43FEFA31AB30A09
:1034700043E1240E311C6DCFAC81BD81ED91FC91F7
:10348000EC0DFD1D858196810BD7BFEFEB1AFB0A72
:10349000EDE0CE0ED11CD5CFEC81FD81309709F443
:1034A0004EC18091C6179091C717A816B90608F0AB
:1034B00046C1EE0DFF1DFF87EE87C50180D88B83C7
:1034C000882339F1AE85BF851F968D919C915097C9
:1034D000019621E01D964D915C918417950709F0A6
:1034E00020E02E831982712C10E000E0AE85BF85AC
:1034F00012968C91781608F45DC0EE85FF8587855D
:1035000090890196658576850E94002E908B87872D
:10351000A5CFB1E0BE83E6CF992493946BC087D644
:10352000F6019683858382C0D601ED90FC90B7E0CA
:103530006B9EE00CF11C1124F70163817481808182
:103540008F3F61F121E030E002C0220F331F8A95E6
:10355000E2F7C901092E000CAA0BBB0BFB0140814D
:1035600051816281738184239523A623B72321E0AF
:10357000892B8A2B8B2B09F420E0D4012C93D701C3
:1035800011968C91F60123853485820F932F911D1E
:10359000880E991E1486138663949BC0418150E067
:1035A000C4010E94552EEBCF998206EF1FEFC5C0D4
:1035B0001982C3C0F981F111A0CFEDE07E9E7001A8
:1035C0001124AE85BF85CD90DC90CE0CDF1C13D4CA
:1035D0009D838C83BB81BB2309F49ECF81E0EE8564
:1035E000FF8527853089232B09F080E0982E8823DA
:1035F00009F458C0672D8E859F8505D8D601189689
:103600009C938E93179761E070E0BED4EE85FF85A2
:10361000218932892F3F320709F481CFBC01C901CA
:10362000CBD7D60116969C938E931597D6011596F7
:103630008D919C911697009709F4B6CFEC81FD818E
:103640008E0F9F1F1A969C938E931997AE85BF85F8
:10365000ED91FC911197EE0EFF1EF7012185328549
:10366000148613861A968C91870DD9018D9371104B
:1036700016C0EE85FF85878184FF11C049855A8574
:103680006B857C85F9014183528363837483F701E1
:10369000838594850496A80FB91F14861386F701B5
:1036A000B287A187D60115968D919C911697892B8B
:1036B00009F443C0EE85FF8525813681809171151F
:1036C000909172152817390779F019968D909C9072
:1036D000612CD60112968C911297681608F424CFAB
:1036E0001A969C928E921997BE81BB2309F460CFE3
:1036F00061E070E0F6018781908546D4D601179687
:10370000ED90FC90189715964D915C91E1E0F0E0FA
:10371000BA81BB2311F0F0E0E0E00C811D819C0137
:10372000B501882799278E1B9F0B68D38C01892BA5
:1037300021F0F60185819681B3D57394D7CE0FEF32
:103740001FEF8CCE10E000E00ECE2F923F924F92F2
:103750005F926F927F928F929F92AF92BF92CF9221
:10376000DF92EF92FF920F931F93CF93DF9380919D
:10377000C4179091C51710E000E0892BA9F0C7DAB3
:103780000AEF1FEF882381F02090C6173090C717EB
:10379000C091C417D091C517D12CC12C10E000E006
:1037A0002C143D04A9F47894C801DF91CF911F91A6
:1037B0000F91FF90EF90DF90CF90BF90AF909F90D0
:1037C0008F907F906F905F904F903F902F900895D3
:1037D000C6010E94DF12882309F18B819C81039727
:1037E000E9F48F859889892BC9F0B60190E080E0D3
:1037F0007AD221E030E0882311F030E020E0442448
:103800005524421A530AB12CA12C912C812C8A8167
:103810008815190409F038F4188A1F864FEFC41A66
:10382000D40A6396BDCFE881F981EA0DFB1D85813D
:103830009681892BA1F161E070E087819085A4D306
:103840003C01D9D28C01E881F981EA0DFB1D81850B
:10385000928525813681200F311FAC01421B530B0D
:103860009A0147815085421B530B70E060E00E9433
:103870005E2EE881F981EA0DFB1DE780F084458129
:1038800056819301B601C201B9D28C01892B39F05E
:10389000E881F981EA0DFB1D8581968101D55FEFF5
:1038A000851A950A8DE0A80EB11CB1CF30CA789464
:1038B00008952F923F924F925F926F927F929F92C4
:1038C000AF92BF92CF92DF92EF92FF920F931F932E
:1038D000CF93DF9300D000D000D0CDB7DEB70091FA
:1038E000C4171091C517992493940115110509F473
:1038F0003EC0A090C617B090C71709DA982E88234B
:10390000B1F11092C5171092C4171092C7171092F8
:10391000C6171092C8171092C9178FEF9FEFDC01DE
:1039200080937B1590937C15A0937D15B0937E15A5
:1039300078947AD31E830D83C12CD12C7601C501D6
:10394000B0E0A0E089839A83AB83BC8322242A94CD
:10395000322C89819A81AB81BC81C816D906EA06CE
:10396000FB06F4F0C8019CD480E40E941E0F892D50
:1039700026960FB6F894DEBF0FBECDBFDF91CF9174
:103980001F910F91FF90EF90DF90CF90BF90AF907D
:103990009F907F906F905F904F903F902F900895F1
:1039A000AD81BE8115968D919C91169720917115D0
:1039B0003091721582179307D1F451968D919C9195
:1039C000E9D5ED81FE8180819181B12CA12C412C22
:1039D000512C3201892B89F5BFEFCB1ADB0AEB0A98
:1039E000FB0AED81FE817396FE83ED83B2CFC11495
:1039F000D104E104F10429F7029718F7ED81FE8163
:103A0000818992898F3F980709F024D5AD81BE81C5
:103A100052963C922E925197D4CF8A0D9B1DDC0179
:103A20008D919C91009709F03BD4BFEF4B1A5B0A34
:103A30006B0A7B0AEDE0AE0EB11CAD81BE818D91AB
:103A40009C91119712964C9150E070E060E0441602
:103A50005506660677060CF323D4BECFCF93DF93CB
:103A6000EA0127DF811109C082E090E09983888311
:103A700085EF9FEFDF91CF91089581E090E00E9464
:103A8000100F81E090E09983888390E080E0F2CF8E
:103A900010DF1092C1171092C017089542E050E055
:103AA00061E176E10C942E0FFF920F931F93CF9359
:103AB000DF938A01EC01C60FD71FF980B4D20897B3
:103AC000F816190671F068F082E090E0F801918331
:103AD00080838EEF9FEFDF91CF911F910F91FF9029
:103AE00008956C817D818E819F814B810E94C511DB
:103AF000811108C082E090E0F8019183808384EF17
:103B00009FEFE9CFF9800E94C0114F2D50E0BE0118
:103B1000685F7F4F0E94552E89810E942F1281E09D
:103B200090E0F8019183808390E080E0D4CFDF9231
:103B3000EF92FF920F931F93CF93DF938A01EC01D3
:103B4000C60FD71F0E94C0117C01D9806CD2DD2026
:103B500059F0029721E030E0D816190619F010F05C
:103B600030E020E0232B79F482E090E0F8019183AB
:103B700080838EEF9FEFDF91CF911F910F91FF9088
:103B8000EF90DF900895EF2841F482E090E0F80193
:103B90009183808384EF9FEFEECFF9800E94C01164
:103BA0004F2D50E0BE016E5F7F4F0E94552E8981E0
:103BB0000E942F1281E090E0F8019183808390E0D1
:103BC00080E0D9CF8EE49DE19093CB178093CA1704
:103BD00008958091CA179091CB1708950895FC011C
:103BE00011821082938382830895DB011D921C92BF
:103BF000DC011296ED91FC9113977183608313960B
:103C00007C936E9312970895FC0180819181DB0172
:103C10008D939C93A081B181109741F08D919C91DF
:103C200091838083892B11F4F383E2830895FC014F
:103C300080819181DB018D939C93892B11F4738397
:103C40006283718360830895FC01118210829383E3
:103C500082830895CF93DF9300D0CDB7DEB71A8269
:103C60001982F894BE016F5F7F4F81ED97E1CCDF41
:103C700089819A81009709F013D389819A81892BD0
:103C800089F7BE016F5F7F4F85ED97E1BDDF8981C9
:103C90009A81009709F004D389819A81892B89F749
:103CA00078940F900F90DF91CF910895CF93DF9389
:103CB00000D0CDB7DEB71A821982F894BE016F5FCB
:103CC0007F4F8DEC97E1A0DF89819A81009709F001
:103CD000E7D289819A81892B89F778940F900F9088
:103CE000DF91CF91089581E0089590E080E00895FC
:103CF000EF92FF920F931F93CF93DF9300D0CDB736
:103D0000DEB71A8219828091CC1707EF1FEF882344
:103D1000A1F1F894BE016F5F7F4F85ED97E174DFED
:103D2000789489819A81EE24E394F12C892B51F4C3
:103D3000F894BE016F5F7F4F81ED97E165DF789466
:103D4000F12CE12C89819A810EEF1FEF0097A9F0E9
:103D5000FC014281538164E070E070D68C01892BB4
:103D600061F0F89469817A81C701880F991F880FE3
:103D7000991F8F52984E5BDF7894C8010F900F9077
:103D8000DF91CF911F910F91FF90EF9008950F93C6
:103D90001F93CF93DF9300D000D0CDB7DEB71C8246
:103DA0001B821A8219828091CC1707EF1FEF88239C
:103DB000C1F0AE014D5F5F4F64E070E0CE0101964F
:103DC000B0D68C01892B69F4E981FA818B819C81C1
:103DD00093838283F89469817A818DEC97E105DF82
:103DE0007894C8010F900F900F900F90DF91CF91B2
:103DF0001F910F910895B5D7049608958F929F92C1
:103E0000AF92BF92CF92DF92EF92FF920F931F93E8
:103E1000CF93DF9300D0CDB7DEB71A821982BC01F1
:103E20006F5F7F4F6330710598F0AA24AA94BA2C73
:103E3000C5010F900F90DF91CF911F910F91FF90CF
:103E4000EF90DF90CF90BF90AF909F908F900895AC
:103E50004115510551F3480159018A016C01CBDF2D
:103E60008815990511F7E114F104F9F28E0D9F1DE3
:103E7000A816B906D0F28091CC178823F1F0F894F7
:103E8000B501645071099701AE014F5F5F4FC801E2
:103E90000496DCD65C01892B71F489819A81F80142
:103EA00093838283C601880F991F880F991FB801D9
:103EB0008F52984E9ADE7894BBCF87EFA82EBB2402
:103EC000BA94B6CFAF92BF92CF92DF92EF92FF92A9
:103ED0000F931F93CF93DF9300D0CDB7DEB71A8235
:103EE0001982892B09F047C06115710509F443C097
:103EF0004115510509F43FC02115310509F43BC0B6
:103F000001151105C1F18091CC178823B9F1790110
:103F10006A015B01F894BE016F5F7F4F8DEC97E102
:103F200073DE789489819A81009759F1DC011296A9
:103F30006D917C91A8010496A2D68C01E981FA8149
:103F4000D501ED93FC93828193810496F6019183D0
:103F5000808351DFD7018D939C93C8010F900F9000
:103F6000DF91CF911F910F91FF90EF90DF90CF9055
:103F7000BF90AF9008950FEF1FEFEFCF07EF1FEF48
:103F8000ECCF0EEF1FEFE9CFCF93DF93EC01672B60
:103F900071F4F0D68C179D0760F0E3D62496C80F15
:103FA000D91FE2D68C0F9D1FDF91CF910895DFD6E8
:103FB000F1CF90E080E0F8CF0F931F93CF93DF9382
:103FC0002091CC1721112BC08B01EC0181ED97E1E1
:103FD00006DE85ED97E103DE8DEC97E100DE97D0FC
:103FE0000097C1F4C7D670E060E0CEDF4FE755E13F
:103FF00062E070E081D1009769F480917F15909123
:104000008015CAD6B801CE01FFD4009719F421E07B
:104010002093CC17DF91CF911F910F91089584EFDA
:104020009FEFF8CFA4C6A6C6CF93DF93A6D6EC0128
:10403000892B11F40FDE3ADECE01DF91CF91089586
:10404000CF93DF939AD6EC01892B09F403DECE01DE
:10405000DF91CF91089580917F15909180150895FB
:10406000CF93DF938091CC17D0E0C0E08823D1F0CC
:1040700098D6EC01892BB1F4EDDD18DE80917F1527
:1040800090918015E7D1E8D2EC01892B59F481EDAC
:1040900097E1DADD85ED97E1D7DD8DEC97E1D4DDB1
:1040A0001092CC17CE01DF91CF910895EF92FF923D
:1040B0000F931F93CF93DF93EC017A018B010F5F76
:1040C0001F4F0E9DA0010F9D500D1E9D500D1124E0
:1040D00070E060E00E945E2E90E080E0F0E0E0E0C2
:1040E0002FEFE816F90639F4DF91CF911F910F9168
:1040F000FF90EF9008951A8219822883309711F06B
:10410000D283C1830196FE01C00FD11FEACFCF92A7
:10411000DF92EF92FF920F931F93CF93DF9305E00F
:1041200019E10C7F43E050E061E875E187E895E133
:1041300018D481E8E82E85E1F82E97E8C92E95E19C
:10414000D92EC4E8D9E1D7014D915D917D01F601E9
:10415000619171916F01198308835D834C835B8347
:104160004A837F836E839B012F5F3F4F249FC00153
:10417000259F900D349F900D1124998788870115F4
:10418000110511F0C80192DF88859985080F191F64
:104190002A96F7E8EF16F5E1FF06A9F6EBEDF7E151
:1041A00087E291E0DF019C011D9221503040E1F750
:1041B0001092DA171092D9171092A3191092A2191F
:1041C0001092A7191092A6191092A5191092A4196D
:1041D0001092A9191092A8191092AB191092AA194D
:1041E0001092AD191092AC191092B1191092B01929
:1041F0001092AF191092AE191092B3191092B21911
:104200001092B5191092B419109281191092801958
:10421000109283191092821990E080E0DF91CF9183
:104220001F910F91FF90EF90DF90CF90089500972E
:10423000F1F0F894A7E8B5E1E4E8F9E130E020E036
:104240004D915D9148175907A8F04281538141155E
:10425000510581F08AE0829FF001839FF00D1124C7
:10426000EC57F64E80819181009759F4789490E054
:1042700080E008952F5F3F4F3A962330310501F7D4
:10428000F5CFDC0111966D917C9171836083415073
:10429000510953834283FC012193CF0178940895FF
:1042A000009749F1DC018E91853041F4E09182194B
:1042B000F09183193097F9F0CD0109948530D8F445
:1042C000282F30E0F8948FEF8C938AE0829FF001E2
:1042D000839FF00D1124EC57F64E80819181129648
:1042E0009C938E931197B183A083828193810196D1
:1042F0009383828378940895CF92DF92EF92FF9216
:104300000F931F93CF93DF939C018EED97E18C7FEA
:104310004115510509F49BC02115310509F497C0D9
:104320006115710509F493C07A01AB01B9016D5FA4
:104330007F4F6C7F9B012F5F3F4F249F8001259F04
:10434000100D349F100D1124F8942091A219309172
:10435000A319232B59F42091AA193091AB192115D7
:10436000310569F12017310708F058C02091AC19C8
:104370003091AD19232B91F42091AA193091AB19EA
:10438000820F931F2091B4193091B5192115310571
:1043900009F441C02017310708F056C07894CFEFD8
:1043A000DFEF86EF9FEFF701D183C083DF91CF91DD
:1043B0001F910F91FF90EF90DF90CF900895C3E091
:1043C000D0E0C090D917D090DA1724E231E02C1950
:1043D0003D092017310710F32AE02C9FF0012D9F93
:1043E000F00D1124EC57F64E91838083558344835E
:1043F000538342837783668311870087009709F090
:1044000055DE0C0D1D1D1093DA170093D917789403
:1044100090E080E0C8CFC4E0D0E0D3CFC3E0D0E0EC
:104420002AE02C9FF0012D9FF00D1124EC57F64E41
:104430009183808355834483538342837783668348
:10444000009729F333DEE3CFC4E0D0E0E9CF8FEF6C
:104450009FEFACCF9C010397029708F069C0F894D6
:1044600084E09AE0482F50E0241735070CF44DC043
:1044700091E08AE0829FF001839FF00D1124EC57B8
:10448000F64E1182108215821482138212821782D4
:1044900016829923B1F18091A2199091A319892BC9
:1044A000A9F42091AA193091AB192115310571F0A9
:1044B0008091D9179091DA17821B930B9093DA179A
:1044C0008093D9171092AB191092AA198091AC1948
:1044D0009091AD19892BA9F42091B4193091B51997
:1044E0002115310571F08091D9179091DA17821B4F
:1044F000930B9093DA178093D9171092B5191092F5
:10450000B419789490E080E00895949FF001959F0D
:10451000F00D1124EC57F64E40815181452B31F4BA
:1045200040855185452B11F481509CCF90E0A1CF5F
:104530008FEF9FEF08954115510549F1009739F12B
:104540006115710521F1F89420918019309181193C
:10455000232BB9F42091821930918319232B89F4EC
:1045600090938119809380197093831960938219B5
:10457000789425E030E090E080E0FA0131832083F8
:10458000089578942FEF3FEF86EF9FEFF6CF8FEFF0
:104590009FEF0895059769F4F8941092811910928D
:1045A00080191092831910928219789490E080E01B
:1045B00008958FEF9FEF08956115710519F4F0E0EC
:1045C000E0E011C08530910581F4E0918019F0910F
:1045D00081193097A1F3CB0101960995009779F3E2
:1045E000FC0185E08193CF0108959C01235031099E
:1045F0002230310520F72AE0289FD001299FB00DF5
:104600001124AC57B64E2D913C911197232BB9F242
:1046100016962D913C9117972617370780F2F8943C
:1046200012962D913C9113972115310529F0ED91AA
:10463000FC911197309711F47894C1CF4181528148
:1046400011965C934E932150310913963C932E930F
:10465000129781937894C7CFE2E0F9E18EE7DF010A
:104660001D928A95E9F7EBEDF7E187E291E0DF0132
:104670009C011D9221503040E1F71092DA17109200
:10468000D917E4E8F9E182E3DF011D928A95E9F7A1
:10469000E0E8F9E184E0DF011D928A95E9F790E016
:1046A00080E00895CF93DF93C0918D15D0918E1542
:1046B000CF3FDC0759F441D490938E1580938D152C
:1046C00097FF09C0D0938E15C0938D1584EF9FEF8F
:1046D000DF91CF91089590E080E0FACF823091058C
:1046E00028F48093B61990E080E008958FEF9FEF53
:1046F00008954F925F926F927F92AF92BF92CF9246
:10470000DF92EF92FF920F931F93CF93DF9300D02E
:10471000CDB7DEB71A821982009709F478C0611507
:10472000710509F474C020918D1530918E1507EF35
:104730001FEF2F3F3F4F09F444C06B015C01412C38
:10474000512C3201F12CE12C10E000E09E012F5F92
:104750003F4FA6014E195F09B5016E0D7F1D809177
:104760008D1590918E1548D4892B09F04AC0898106
:104770009A81009741F4E114F10429F42091B619CB
:10478000222309F441C0E80EF91EEC14FD04C8F41C
:1047900080E8481684E858068EE16806710418F52A
:1047A00060E070E0CB01D0D72AE0420E511C611CC2
:1047B000711C0A3F4FEF140721F0043F8FEF1807D9
:1047C000A1F4C8010F900F90DF91CF911F910F912D
:1047D000FF90EF90DF90CF90BF90AF907F906F9061
:1047E0005F904F90089501EF1FEF81E090E0013F4F
:1047F0002FEF120711F090E080E0892B09F4A6CF8B
:10480000E0CF04EF1FEFDDCF0AEF1FEFDACF0FEF9E
:104810001FEFD7CF4F925F926F927F92AF92BF926E
:10482000CF92DF92EF92FF920F931F93CF93DF937C
:1048300000D0CDB7DEB71A821982009709F478C08C
:104840006115710509F474C020918D1530918E1594
:1048500007EF1FEF2F3F3F4F09F444C06B015C018E
:10486000412C512C3201F12CE12C10E000E09E0192
:104870002F5F3F4FA6014E195F09B5016E0D7F1DD9
:1048800080918D1590918E156DD3892B09F04AC0BA
:1048900089819A81009741F4E114F10429F420916F
:1048A000B619222309F441C0E80EF91EEC14FD04E8
:1048B000C8F480E4481682E458068FE06806710464
:1048C00018F560E070E0CB013FD72AE0420E511CA2
:1048D000611C711C0E3F4FEF140721F0043F8FEF56
:1048E0001807A1F4C8010F900F90DF91CF911F918D
:1048F0000F91FF90EF90DF90CF90BF90AF907F909F
:104900006F905F904F90089502EF1FEF81E090E06D
:10491000023F2FEF120711F090E080E0892B09F49D
:10492000A6CFE0CF04EF1FEFDDCF0EEF1FEFDACF02
:104930000FEF1FEFD7CF80918D1590918E158F3F80
:10494000980749F0F2D2892B49F48FEF9FEF9093AB
:104950008E1580938D1590E080E0089584EF9FEF91
:104960000895CF92DF92EF92FF920F931F93CF9310
:10497000DF9321E04115510509F020E04150510934
:1049800021112CC0DC01FB01D12CC12C21E022C063
:104990003FEFC31AD30A7D010D911D91E701EA8013
:1049A000FB80E016F106A8F420813181E280F380DB
:1049B000F182E08233832283ED90FC9011979D0178
:1049C00022503109E901F982E88211961C930E9375
:1049D00020E03296C416D506D8F2D2CFDF91CF911F
:1049E0001F910F91FF90EF90DF90CF900895FC0101
:1049F000680F791F90E080E0E617F70709F4089543
:104A00002191820F911DF8CF2091B719211113C068
:104A100049DE009791F41092BD191092BC191092C2
:104A2000BB191092BA191092B9191092B81921E055
:104A30002093B719089584EF9FEF0895AF92BF9226
:104A4000CF92DF92EF92FF920F931F93CF93DF935A
:104A5000009709F460C04630510508F45CC020910D
:104A6000B719C7EFDFEF222309F449C08C01060F05
:104A7000171FF801C080D180C114D10409F44EC0C1
:104A800096012A5F3F4F4217530708F447C07C0145
:104A90008091BC199091BD1993838283B6016C5F9C
:104AA0007F4F5801A60EB71EC801A1DFF501918303
:104AB000808364E070E0C8011CDEEC01892BF9F40E
:104AC00081E090E00BDEB601C801049612DEEC0135
:104AD000892B91F462E070E0C5010BDEEC01892BBB
:104AE00059F4C701DDDB8091BC199091BD19019685
:104AF0009093BD198093BC1990E080E0EFDDCE016A
:104B0000DF91CF911F910F91FF90EF90DF90CF90A9
:104B1000BF90AF900895CFEFDFEFF1CFC9EFDFEF98
:104B2000EECF6F927F928F929F92AF92BF92CF9271
:104B3000DF92EF92FF920F931F93CF93DF9300D0FA
:104B400000D0CDB7DEB7009709F47AC04115510502
:104B500009F476C02091B71907EF1FEF222309F45B
:104B60004DC03A017B015C0164E070E0CE0101962A
:104B700051DE8C01892B09F041C009811A81011590
:104B8000110509F45AC0480186E0880E911CB7014E
:104B9000680D791D80918F15909190150DDD6C0138
:104BA000009709F450C0A70170E060E00E945E2EFB
:104BB00089819A81AB81BC81EC0CFD1CF70181934A
:104BC0009193A193B1937F0181E090E087DDB801DB
:104BD000C70120DE892B31F562E070E0C701800F4C
:104BE000911F18DE8C01892BE9F490E080E076DDDE
:104BF000F501D182C082F30191828082C8010F90B9
:104C00000F900F900F90DF91CF911F910F91FF9018
:104C1000EF90DF90CF90BF90AF909F908F907F905C
:104C20006F90089590E080E059DDF50111821082C7
:104C3000F30111821082C60133DB09EF1FEFDECFD3
:104C40000FEF1FEFDBCF06EF1FEFD8CF0097A1F0DC
:104C50004115510589F02115310571F0F90136969C
:104C60006E177F0748F0DC012D933C93DA01ED933A
:104C7000FC9390E080E008958FEF9FEF0895AF924E
:104C8000BF92CF92DF92EF92FF920F931F93CF9339
:104C9000DF93009709F45FC04115510509F45BC02B
:104CA0006530710508F457C02091B719C7EFDFEFE1
:104CB000222391F1DC01CD90DC9011971296ED91B9
:104CC000FC9196012A5F3F4FC9EFDFEF26173707A8
:104CD00019F5C091B819D091B919209749F521E07B
:104CE00030E03093B9192093B8197A018C01F09310
:104CF000BB19E093BA195601B4E0AB0EB11CB50173
:104D000076DE0A0D1B1DF801208131818217930781
:104D100029F5D701CD92DC92CE01DF91CF911F9181
:104D20000F91FF90EF90DF90CF90BF90AF900895DC
:104D30002091BA193091BB192F5F3F4FCCEFDFEFB5
:104D4000E217F30790F2CBEFDFEF2E173F0768F281
:104D5000D0E0C0E0CACFCFEFDFEFDECFC3EFDFEFB1
:104D6000DBCF84E090E0089582E090E008958CEF3E
:104D70009FEF089580E290E008951092BD1910927F
:104D8000BC191092BB191092BA191092B91910924D
:104D9000B81990E080E008959093901580938F1556
:104DA00008958091B719882391F0C5DD009789F4A3
:104DB0001092BD191092BC191092BB191092BA1919
:104DC0001092B9191092B8191092B719089590E07D
:104DD00080E00895009749F06115710531F0FC01FC
:104DE00011821082FB01118210820895F3CF089581
:104DF00026E030E040E855E260E070E090E080E0DE
:104E000000C01092BF191092BE1989309105E0F4CC
:104E1000845F984DFC012AC715271E2725272827C0
:104E20002B272E27312734273A2781E090E09093D3
:104E3000BF198093BE198DEC99E1C1C582E090E065
:104E40009093BF198093BE19089584E090E0F8CF45
:104E500088E090E0F5CF80E190E0F2CF80E290E052
:104E6000EFCF80E490E0ECCF80E890E09093BF1922
:104E70008093BE198091BE199091BF199160E0CFC7
:104E80001F920F920FB60F9211242F933F934F93BF
:104E90005F936F937F938F939F93AF93BF93EF93A2
:104EA000FF9386E997EE9093850080938400B7D0B6
:104EB000FF91EF91BF91AF919F918F917F916F91F2
:104EC0005F914F913F912F910F900FBE0F901F90C8
:104ED000189586E997EE9093850080938400AFE65D
:104EE000B0E08C918E7F8C93E0E8F0E080818C7F45
:104EF0008083E1E8F0E08081877E80838081846028
:104F0000808380818C7F80838C9181608C930895D5
:104F1000EFE6F0E0808190819E7F9083817008951C
:104F200081E008951092C019089568EE73E080E062
:104F300090E00AD490E080E0089526E030E040E080
:104F400052EC61E070E090E080E05BDF8DEC99E195
:104F50006CD4892B21F08DEC99E181D4F7CF90E0CE
:104F600080E00895CF92DF92EF92FF920F931F930C
:104F7000CF93DF936B017A01E901198218828DECDE
:104F800099E153D4892B69F18601CC24C39482E042
:104F9000D82E8091C019811110C08DEC99E15FD499
:104FA0000297B9F7C092C019F801D1928F01888198
:104FB0009981019699838883ECCF888199818E1598
:104FC0009F0578F48DEC99E14AD48F3F9807A9F3B7
:104FD000F80181938F018881998101969983888353
:104FE000ECCF90E080E0DF91CF911F910F91FF9087
:104FF000EF90DF90CF9008950F931F93CF93DF939F
:10500000EA0189018DEC99E1BED5F801D183C08315
:1050100090E080E0DF91CF911F910F9108958091F2
:10502000C11991E0980F9093C119882349F021E0AC
:1050300030E03093C3192093C2198093C1190895A9
:1050400078940E945D03F8948091C1198150F5CF46
:105050000F931F93CF93DF931092CC1A1092CB1A19
:10506000A9D3C6DEC0919715D091981519821882E0
:105070006CE271E080E090E00E94FB0170E060E093
:1050800090E080E00E947500009709F042C00E9405
:10509000D707F89478948A819B81BC01685F7F4F21
:1050A0000E947800892B71F46FEF7FEFCB010E9493
:1050B0000A010E94F501882329F081E0FE01E450F5
:1050C000FF4F8083F89405DF0E94F801882311F0D8
:1050D00080E00BC00E94F5018111FACF81E0FE0152
:1050E000E450FF4F90819111F3CF8093CB1A7894C5
:1050F0000E940B0F8C017894C450DF4F8091CB1A23
:1051000081110CC00E94E8080E94D901F89490E037
:1051100080E0DF91CF911F910F9108950E94D601F9
:105120000E94F8018823E1F081E08093CC1A9091ED
:10513000CC1A81E0911180E08093CB1A8091CC1A37
:105140008111E6DE0130110529F40E940B0F892B35
:1051500009F4E8DE0E940B0F8C01E2DE48DECECFC0
:105160000E94F5018111E0CF81E098819111DDCF9E
:1051700080E0DBCF5058BB27AA270ED0CBC1BCD1D3
:1051800030F0C1D120F031F49F3F11F41EF48CC1F6
:105190000EF4E095E7FB82C1E92FCDD180F3BA1779
:1051A000620773078407950718F071F49EF5E5C14F
:1051B0000EF4E0950B2EBA2FA02D0B01B901900132
:1051C0000C01CA01A0011124FF27591B99F0593F76
:1051D00050F4503E68F11A16F040A22F232F342FBE
:1051E0004427585FF3CF469537952795A795F0400C
:1051F0005395C9F77EF41F16BA0B620B730B840B21
:10520000BAF09150A1F0FF0FBB1F661F771F881FD8
:10521000C2F70EC0BA0F621F731F841F48F4879530
:1052200077956795B795F7959E3F08F0B3CF93951F
:10523000880F08F09927EE0F9795879508955CD110
:1052400058F080E891E009F49EEF5DD128F040E845
:1052500051E059F45EEF09C027C18FC1E92FE07812
:105260006AD168F3092E052AC1F3261737074807C4
:10527000590738F00E2E07F8E02569F0E025E064C4
:105280000AC0EF6307F8009407FADB01B9019D013A
:10529000DC01CA01AD01EF9347D03CD10AD05F9148
:1052A000552331F02BED3FE049E450FD49EC63CF4D
:1052B0000895DF93DD27B92FBF7740E85FE3161627
:1052C000170648075B0710F4D92F62D19F938F937D
:1052D0007F936F93C7D1E8E6F0E0E9D01BD12F911F
:1052E0003F914F915F9167D1DD2349F09058A2EA39
:1052F0002AED3FE049EC5FE3D0785D274DDFDF9199
:1053000009C1A8D008F481E008950CD003C1FBD0F6
:1053100040F0F2D030F021F45F3F19F0BFC05111DE
:105320002DC1C2C008D198F39923C9F35523B1F315
:10533000951B550BBB27AA2762177307840738F004
:105340009F5F5F4F220F331F441FAA1FA9F333D063
:105350000E2E3AF0E0E830D091505040E695001C17
:10536000CAF729D0FE2F27D0660F771F881FBB1FD3
:10537000261737074807AB07B0E809F0BB0B802DAD
:10538000BF01FF2793585F4F2AF09E3F510568F0F9
:1053900085C0F4C05F3FECF3983EDCF386957795CB
:1053A0006795B795F7959F5FC9F7880F911D9695FB
:1053B000879597F90895E1E0660F771F881FBB1F57
:1053C000621773078407BA0720F0621B730B840B04
:1053D000BA0BEE1F88F7E0950895E89409C097FB93
:1053E0003EF490958095709561957F4F8F4F9F4FBC
:1053F0009923A9F0F92F96E9BB279395F695879500
:1054000077956795B795F111F8CFFAF4BB0F11F4C2
:1054100060FF1BC06F5F7F4F8F4F9F4F16C0882369
:1054200011F096E911C0772321F09EE8872F762F9F
:1054300005C0662371F096E8862F70E060E02AF0E0
:105440009A95660F771F881FDAF7880F96958795CC
:1054500097F90895990F0008550FAA0BE0E8FEEFA1
:1054600016161706E807F907C0F012161306E40728
:10547000F50798F0621B730B840B950B39F40A2621
:1054800061F0232B242B252B21F408950A2609F4FF
:10549000A140A6958FEF811D811D089597F99F6703
:1054A00080E870E060E008959FEF80EC0895DF935E
:1054B000CF931F930F93FF92EF92DF927B018C01AA
:1054C000689405C0DA2EEF0176D0FE01E894A5912C
:1054D0002591359145915591AEF3EF015DDEFE01C9
:1054E0009701A801DA9479F7DF90EF90FF900F9180
:1054F0001F91CF91DF91089500240A941616170684
:1055000018060906089500240A94121613061406B4
:1055100005060895092E0394000C11F4882352F017
:10552000BB0F40F4BF2B11F460FF04C06F5F7F4FCF
:105530008F4F9F4F089557FD9058440F551F59F0B6
:105540005F3F71F04795880F97FB991F61F09F3F70
:1055500079F087950895121613061406551FF2CF99
:105560004695F1DF08C0161617061806991FF1CFE9
:1055700086957105610508940895E894BB27662710
:105580007727CB0197F9089565DF08F48FEF089529
:105590009B01AC0160E070E080E89FE3B6CE0BD0E9
:1055A000B9CFAADF28F0AFDF18F0952309F076CF46
:1055B0007BCF1124E3CFBFDFA0F3959FD1F3950FED
:1055C00050E0551F629FF001729FBB27F00DB11D87
:1055D000639FAA27F00DB11DAA1F649F6627B00D17
:1055E000A11D661F829F2227B00DA11D621F739F00
:1055F000B00DA11D621F839FA00D611D221F749F0E
:105600003327A00D611D231F849F600D211D822F54
:10561000762F6A2F11249F5750408AF0E1F088239B
:105620004AF0EE0FFF1FBB1F661F771F881F9150A8
:105630005040A9F79E3F510570F030CF9FCF5F3F9C
:10564000ECF3983EDCF3869577956795B795F795DB
:10565000E7959F5FC1F7FE2B880F911D9695879563
:1056600097F908959B01AC019ACF1F920F920FB644
:105670000F9211242F933F938F939F93AF93BF93D8
:105680008091C5199091C619A091C719B091C819F8
:105690003091C41923E0230F2D3758F50196A11D31
:1056A000B11D2093C4198093C5199093C619A09376
:1056B000C719B093C8198091C9199091CA19A091BE
:1056C000CB19B091CC190196A11DB11D8093C919B8
:1056D0009093CA19A093CB19B093CC19BF91AF91F5
:1056E0009F918F913F912F910F900FBE0F901F9020
:1056F000189526E8230F0296A11DB11DD2CF3FB702
:10570000F8948091C9199091CA19A091CB19B091C0
:10571000CC1926B5A89B05C02F3F19F00196A11DF5
:10572000B11D3FBFBA2FA92F982F8827BC01CD01EB
:10573000620F711D811D911D42E0660F771F881F4A
:10574000991F4A95D1F708958F929F92AF92BF9279
:10575000CF92DF92EF92FF926B017C01D0DF4B0181
:105760005C01C114D104E104F104D9F039D2C7DFDE
:10577000681979098A099B09683E7340810591057A
:1057800080F321E0C21AD108E108F10888EE880E02
:1057900083E0981EA11CB11CC114D104E104F104E2
:1057A00031F7FF90EF90DF90CF90BF90AF909F9038
:1057B0008F900895789484B5826084BD84B58160AB
:1057C00084BD85B5826085BD85B5816085BDEEE609
:1057D000F0E0808181608083E1E8F0E010828081E8
:1057E00082608083808181608083E0E8F0E0808156
:1057F00081608083E1EBF0E0808184608083E0EB76
:10580000F0E0808181608083EAE7F0E0808184605D
:1058100080838081826080838081816080838081B9
:10582000806880831092C1000895FC01918D228DC3
:10583000892F90E0805C9F4F821B91098F7399277D
:105840000895FC01918D828D981731F0828DE80FBB
:10585000F11D858D90E008958FEF9FEF0895FC0175
:10586000918D828D981761F0A28DAE0FBF2FB11D63
:105870005D968C91928D9F5F9F73928F90E00895BB
:105880008FEF9FEF0895FC01538D448D252F30E05D
:10589000842F90E0821B930B541710F0CF9608953D
:1058A00001970895FC01A48DA80FB92FB11DA35A2B
:1058B000BF4F2C91848D90E001968F739927848F30
:1058C000A689B7892C93A089B1898C918370806453
:1058D0008C93938D848D981306C00288F389E02DF4
:1058E00080818F7D80830895CF93DF93EC01888D35
:1058F0008823B1F0AA89BB89E889F9898C9185FD53
:1059000003C0808186FD0CC00FB607FCF7CF8C91D9
:1059100085FFF2CF808185FFEDCFCE01C3DFEACFD7
:10592000DF91CF910895EF92FF920F931F93CF9342
:10593000DF93EC0181E0888F9B8D8C8D98131AC0CA
:10594000E889F989808185FF15C09FB7F894EE89B1
:10595000FF896083E889F98980818370806480830E
:105960009FBF81E090E0DF91CF911F910F91FF9059
:10597000EF900895F62E0B8D10E00F5F1F4F0F7301
:105980001127E02E8C8D8E110BC00FB607FCFACFBD
:10599000E889F989808185FFF5CFCE0183DFF2CFD9
:1059A000EB8DEC0FFD2FF11DE35AFF4FF0829FB7F7
:1059B000F8940B8FEA89FB8980818062D0CFCF92E7
:1059C000DF92EF92FF921F93CF93DF93EC016A0176
:1059D0007B01122FE889F98982E08083C11481EE6E
:1059E000D806E104F10499F060E079E08DE390E0FD
:1059F000A701960119D12150310941095109569544
:105A0000479537952795211580E1380790F0E8896B
:105A1000F989108260E874E88EE190E0A7019601B0
:105A200003D12150310941095109569547953795C0
:105A30002795EC85FD853083EE85FF852083188EC4
:105A4000EC89FD891083EA89FB89808180618083EC
:105A5000EA89FB89808188608083EA89FB8980816B
:105A600080688083EA89FB8980818F7D8083DF91D4
:105A7000CF911F91FF90EF90DF90CF9008951F92EC
:105A80000F920FB60F9211242F938F939F93EF9342
:105A9000FF93E091DD19F091DE198081E091E31927
:105AA000F091E41982FD1BC090818091E6198F5F0F
:105AB0008F732091E719821741F0E091E619F0E029
:105AC000E353F64E958F8093E619FF91EF919F91E6
:105AD0008F912F910F900FBE0F901F90189580817E
