:1000000058C000007EC000007CC000007AC0000024
:1000100078C0000076C0000074C0000072C000000C
:1000200070C000006EC000006CC000006AC000001C
:1000300068C000000C944F2564C0000062C000003E
:100040000C945D2D5EC000000C94C92F0C94FB2F06
:1000500058C0000056C0000054C0000052C000004C
:100060000C94402C4EC0000000000008000201006B
:100070000003040700000000000000000102040863
:100080001020408001020408102001020408102002
:10009000040404040404040402020202020203032E
:1000A0000303030300000000250028002B00AC29F7
:1000B000203011241FBECFEFD8E0DEBFCDBF11E04E
:1000C000A0E0B1E0E2EEF1E602C005900D92A83D9D
:1000D000B107D9F726E0A8EDB1E001C01D92AB321F
:1000E000B207E1F710E0C9E5D0E004C02197FE01B6
:1000F0000E94C030C735D107C9F70E9455260C941D
:10010000EF307ECFCF92DF92EF92FF926B017C01B6
:10011000C114D104E104F10469F48091000181115A
:1001200009C080910201909103010E941D2981E084
:1001300080930001C601880F991F880F991F805076
:100140009F4FFF90EF90DF90CF900895009781F040
:10015000FC012181211104C040EA56E861E070E011
:10016000FC01828193810E942C2990E080E0089517
:1001700088E090E008954F925F926F927F928F9205
:100180009F92AF92BF92CF92DF92EF92FF920F9326
:100190001F93CF93DF930097C9F1280139017A01AA
:1001A000EC01402F8A819B810E94AA298A819B8130
:1001B000DC01ED91FC910084F185E02D0995892BFE
:1001C00001F16701812C912C54018A819B81DC0112
:1001D000ED91FC910084F185E02D0995892B91F139
:1001E00084149504A604B70469F18A819B81DC011B
:1001F000ED91FC910284F385E02D09958F3F9807DE
:10020000C1F484E0F70111928A95E9F788E090E063
:10021000DF91CF911F910F91FF90EF90DF90CF90E2
:10022000BF90AF909F908F907F906F905F904F9016
:100230000895FFEF8F1A9F0AAF0ABF0AD6018D9368
:100240006D01C3CF90E080E0E3CF8F929F92AF9299
:10025000BF92CF92DF92EF920F931F93CF93DF93D2
:100260000097F1F06A01EC018A819B810E942F299D
:100270008A819B81DC01ED91FC910280F381E02D6C
:10028000A801B60109958A819B8160E0E11001C057
:1002900061E00E943929882389F08250823088F0F9
:1002A00088E090E0DF91CF911F910F91EF90DF9068
:1002B000CF90BF90AF909F908F90089590E080E096
:1002C000F1CF84E090E0EECF08951092D901109222
:1002D000D80189309105F0F48F589E4FFC010C94A1
:1002E000C0307A0184018B018E0191019401970144
:1002F0009A01A00181E090E09093D9018093D80108
:100300008BE495E00C94692F82E090E09093D90102
:100310008093D801089584E090E0F8CF88E090E0E1
:10032000F5CF80E190E0F2CF80E290E0EFCF80E483
:1003300090E0ECCF80E890E09093D9018093D801D1
:100340008091D8019091D9019160E0CF8F929F92D6
:10035000AF92BF92CF92DF92EF92FF926B017C013E
:100360000E94A72D4B015C010E94A72D68197909F5
:100370008A099B09C616D706E806F906A8F7FF9072
:10038000EF90DF90CF90BF90AF909F908F900895A7
:100390000C94A72D90E080E008950F931F93009791
:1003A00009F488C06115710509F484C00091040145
:1003B0001091050120910601309107010E3F1F4F5A
:1003C0002F4F3F4F09F068C0DB014D915D916D915A
:1003D0007C91409304015093050160930601709352
:1003E000070140910401509105016091060170914F
:1003F0000701DC011296ED91FC9180819181A2812F
:10040000B38180933C0290933D02A0933E02B0934F
:100410003F0284819581A681B781809338029093B1
:100420003902A0933A02B0933B0280859185A28560
:10043000B3858093340290933502A0933602B09333
:10044000370284859585A685B78580933002909381
:100450003102A0933202B093330210922C02109218
:100460002D0210922E0210922F021AD785E799E0E2
:100470009093DB018093DA019093DD018093DC019E
:10048000FED5009731F421E030E030934102209313
:1004900040021F910F9108950091040110910501F0
:1004A0002091060130910701FB0100831183228313
:1004B000338397CF8FEF9FEFECCF8F929F92AF92C6
:1004C000BF92CF92DF92EF92FF921F93CF93DF9371
:1004D0004B015C011091430282E090E09093410255
:1004E0008093400281149104A104B10441F48091ED
:1004F0004302811104C080914202C1E08111C0E039
:10050000C12CD12C760180914302811106C08091CB
:100510004202811102C0CC23D9F083E090E0909395
:10052000410280934002CC2379F1CCE9DFEF111135
:1005300002C00E94D90CCE01DF91CF911F91FF9094
:10054000EF90DF90CF90BF90AF909F908F900895E5
:100550006AE070E080E090E00E94D82D80E1C80E53
:1005600087E2D81EE11CF11C8FEF88169806A806BA
:10057000B80631F0C1E08C149D04AE04BF0408F04D
:10058000C0E080E0B0D5BFCFD0E0C0E0D0CFCF9208
:10059000DF92EF92FF920F931F93CF93DF938F3FE2
:1005A000910511F008F050C02091400230914102B5
:1005B0002330310539F02091400230914102213041
:1005C000310531F424E030E03093410220934002C1
:1005D0006A017B01EC0182309105A0F011E0AE01CF
:1005E000C701B6014BD5AB01BC01CE011123F9F017
:1005F000DF91CF911F910F91FF90EF90DF90CF90FF
:100600000C94FE0E8C01000F111F06521E4FD801D4
:100610008D919C91892B11F30E94080F0297F1F69E
:10062000D801ED91FC91CE010995182FD8CF0E94E9
:10063000200F90E080E0DF91CF911F910F91FF900C
:10064000EF90DF90CF9008958FEF9FEFF4CF80E091
:100650004AC5CF93DF9386E090E090934102809368
:1006600040029AD5EC01EAEDF1E084E0DF011D9251
:100670008A95E9F70E94710C109241021092400293
:10068000CE01DF91CF91089580914202089580912B
:100690002B02089560930401709305018093060175
:1006A0009093070190E080E00895CF92EF920F932E
:1006B0001F93CF93DF93CDB7DEB763970FB6F89450
:1006C000DEBF0FBECDBF80910606811104C060DE83
:1006D00081E08093060688E28B8BC12CEE24E394A4
:1006E00001E010E020E030E0AE014D5E5F4F6BE6D0
:1006F00070E080910C0690910D06A7DD81113AC142
:10070000CC24C394E12C06E010E020E030E0AE0100
:100710004F5F5F4F6BE670E080910C0690910D0685
:100720002ADD86E0FE013196DE011D9601900D92D4
:100730008A95E1F788E18B8BC12CEE24E39401E0EC
:1007400010E020E030E0AE014D5E5F4F6BE670E000
:1007500080910C0690910D0678DD81111AC0CC2491
:10076000C394E12C06E010E020E030E0AE014F5FE2
:100770005F4F6BE670E080910C0690910D06FBDCFC
:1007800086E0FE013196DE01179601900D928A9562
:10079000E1F788E28B8BC12CEE24E39401E010E0BA
:1007A00020E030E0AE014D5E5F4F6EE170E0809181
:1007B0001B0690911C0649DD8111E3C0CC24C39433
:1007C000E12C06E010E020E030E0AE014F5F5F4F2B
:1007D0006EE170E080911B0690911C06CCDC86E0F7
:1007E000FE013196DE01179601900D928A95E1F790
:1007F0006D857E85072E000C880B990B0E9449277A
:100800009B01AC010E94DF2620E030E040E058E38D
:100810000E94FD276093E8057093E9058093EA053F
:100820009093EB056F817885072E000C880B990B50
:100830000E94492720E030E040E850E40E94FD2774
:1008400020E030E040E058E30E94FD276093F4058B
:100850007093F5058093F6059093F7056F85788979
:10086000072E000C880B990B0E9449279B01AC01B5
:100870000E94DF2620E030E040E058E30E94FD27A0
:100880006093EC057093ED058093EE059093EF0572
:1008900069857A85072E000C880B990B0E944927E1
:1008A00020E030E040E850E40E94FD2720E030E006
:1008B00040E058E30E94FD276093F8057093F90526
:1008C0008093FA059093FB0569897A89072E000CBD
:1008D000880B990B0E9449279B01AC010E94DF26DF
:1008E00020E030E040E058E30E94FD276093F005EF
:1008F0007093F1058093F2059093F3056B857C85E9
:10090000072E000C880B990B0E94492720E030E04D
:1009100040E850E40E94FD2720E030E040E058E34A
:100920000E94FD276093FC057093FD058093FE05F2
:100930009093FF058091060290910702A091080212
:10094000B09109020196A11DB11D809306029093FA
:100950000702A0930802B093090263960FB6F894B9
:10096000DEBF0FBECDBFDF91CF911F910F91EF90F2
:10097000CF9008951E861D86188A1F861A8A198AA6
:10098000D9CE18861F821A8619861C861B8630CF00
:100990004F925F926F927F929F92AF92BF92CF924F
:1009A000DF92EF92FF920F931F93CF93DF9300D0CC
:1009B00000D0CDB7DEB7E0EFF1E080E090E0A0E856
:1009C000BFEB828F938FA48FB58F86EA93E3A1E864
:1009D000B0ED84839583A683B78381EA9DE4A8EB79
:1009E000B9EE80879187A287B3878EEF93E1A7E165
:1009F000B5ED84879587A687B7878DE291EBA1E354
:100A0000BAE6808B918BA28BB38BA4EEB1E0B3835B
:100A1000A283EEEDF1E01196FC93EE938DE291E06E
:100A200091838083938382839583848384E092E09F
:100A300015969C938E93149784EF91E013969C9354
:100A40008E9312974FEF5FEFBA0118964D935D9317
:100A50006D937C931B9780E0A82E86E0B82EF5015D
:100A6000168280E090E5A3ECB8E4828B938BA48B94
:100A7000B58B10861186128613861586148617820A
:100A800081A392A3A3A3B4A3178A108E118E128EF2
:100A9000148E138E168A108281E090E0A0E0B0E000
:100AA00081839283A383B48350E040E060E070E0F0
:100AB000CB0128DBF5019587848720EA422E26E8C2
:100AC000522E66246394712C46865786608A718AFA
:100AD00040EA56E861E070E039DB34E0932E9A8218
:100AE00042E2F42EF98289819A819C838B83C12C06
:100AF000E12C02E010E020E030E0AE014D5F5F4FFE
:100B00006BE670E0F501848595859FDB6AE070E017
:100B100080E090E01BDC80E68A8380E18983898124
:100B20009A819C838B8302E010E020E030E0AE01EC
:100B30004D5F5F4F6BE670E0F5018485958585DB41
:100B40001A8281E1898389819A819C838B8302E067
:100B500010E020E030E0AE014D5F5F4F6BE670E0EB
:100B6000F5018485958571DB80E48A8382E1898340
:100B700089819A819C838B8302E010E020E030E041
:100B8000AE014D5F5F4F6BE670E0F50184859585A2
:100B90005CDB58E3D52EDA828EE1898389819A81E4
:100BA0009C838B8302E010E020E030E0AE014D5FDB
:100BB0005F4F6BE670E0F5018485958546DB1A8210
:100BC00083E1898389819A819C838B8302E010E091
:100BD00020E030E0AE014D5F5F4F6BE670E0F50165
:100BE0008485958532DB9A82F98289819A819C83FA
:100BF0008B8302E010E020E030E0AE014D5F5F4FFC
:100C00006BE670E0F501848595851FDB6AE070E096
:100C100080E090E09BDBDA828FE1898389819A8191
:100C20009C838B8302E010E020E030E0AE014D5F5A
:100C30005F4F6BE670E0F5018485958506DB87E6FE
:100C40008A8360E2962E998289819A819C838B8324
:100C500002E010E020E030E0AE014D5F5F4F6BE658
:100C600070E0F50184859585F0DA1A8271E2D72E5D
:100C7000D98289819A819C838B8302E010E020E0F5
:100C800030E0AE014D5F5F4F6BE670E0F5018485AB
:100C90009585DBDA50E040E060E070E0CB0132DACD
:100CA000F501948F838F458E568E678E70A240EA31
:100CB00056E861E070E04ADA88E18A8399828981A6
:100CC0009A819C838B8302E010E020E030E0AE014B
:100CD0004D5F5F4F6EE170E0F501838D948DB5DA65
:100CE0001A82D98289819A819C838B8302E010E0E9
:100CF00020E030E0AE014D5F5F4F6EE170E0F50146
:100D0000838D948DA2DAF98289819A819C838B8369
:100D100002E010E020E030E0AE014D5F5F4F6EE199
:100D200070E0F501838D948D90DA83E28983898167
:100D30009A819C838B8302E010E020E030E0AE01DA
:100D40004D5F5F4F6EE170E0F501838D948D7DDA2C
:100D500084E2898389819A819C838B8302E010E0FD
:100D600020E030E0AE014D5F5F4F6EE170E0F501D5
:100D7000838D948D6ADA6AE070E080E090E0E6DAD4
:100D800081E0F50185830F900F900F900F90DF9118
:100D9000CF911F910F91FF90EF90DF90CF90BF9078
:100DA000AF909F907F906F905F904F90089580914B
:100DB000000681111DC081E080930006809101062C
:100DC00090910206A0910306B09104060197A10537
:100DD000B10571F480910506882351F080910C06CD
:100DE00090910D0671DA80911B0690911C066CDAC9
:100DF0008091160681111BC081E0809316068091B8
:100E0000170690911806A0911906B0911A0601973D
:100E1000A105B10561F482E090E0A0E0B0E080932C
:100E2000170690931806A0931906B0931A0680919E
:100E3000070681111BC081E0809307068091080698
:100E400090910906A0910A06B0910B060197A105A1
:100E5000B10561F482E090E0A0E0B0E08093080684
:100E600090930906A0930A06B0930B0608954F923B
:100E70005F926F927F928F929F92AF92BF92CF922A
:100E8000DF92EF92FF920F931F93F89440901B0212
:100E900050901C0260901D0270901E02C0900F02C4
:100EA000D0901002E0901102F0901202452B09F050
:100EB000A6C09B01AC01241935094609570929012F
:100EC0003A010091170210911802209119023091F5
:100ED0001A0248015901840C951CA61CB71C8016E7
:100EE0009106A206B306A0F4009113021091140219
:100EF00020911502309116020F5F1F4F2F4F3F4F69
:100F000000931302109314022093150230931602DB
:100F10008092170290921802A0921902B0921A02BF
:100F200000911302109114022091150230911602C3
:100F300080921F0290922002A0922102B09222027F
:100F4000009323021093240220932502309326025B
:100F500060931B0270931C0280931D0290931E02EB
:100F6000A301920160EA76E881E090E00E947B3084
:100F70006C0D7D1D8E1D9F1D60930F0270931002DE
:100F800080931102909312020091040110910501C7
:100F900020910601309107010F3F1F4F2F4F3F4F08
:100FA000F1F00091040110910501209106013091AA
:100FB00007010E3F1F4F2F4F3F4F89F0C090040194
:100FC000D0900501E0900601F090070121E08C141B
:100FD0009D04AE04BF0408F420E020932B02789413
:100FE0001F910F91FF90EF90DF90CF90BF90AF9047
:100FF0009F908F907F906F905F904F9008954B01DE
:101000005C0184189508A608B708A3019201261B65
:10101000370B480B590B6415750586059705E0F0ED
:1010200082169306A406B50640F420E030E0A9013C
:1010300081149104A104B104A1F460EA76E881E08E
:1010400090E00E947B30A7019601261B370B480BCE
:10105000590BCA01B901C3CF82169306A406B5067F
:1010600060F7A501940160EA76E881E090E00E94D3
:101070007B306C0D7D1D8E1D9F1DB1CFF8CECF93A3
:10108000DF9300D000D0CDB7DEB71C821B821A825E
:1010900019821092270210922802109229021092AF
:1010A0002A02BE016F5F7F4FCE0103960E94372553
:1010B00069817A818B819C810E94271E009761F44F
:1010C000BE016F5F7F4FCE0103960E944325698169
:1010D0007A818B819C8128D50F900F900F900F9073
:1010E000DF91CF910895FF920F931F93CF93DF93DA
:1010F000082F60E070E0CB010E94D82DFF24F3940C
:101100000E94121DEC01892B89F010E0CE3F8FEF79
:10111000D80769F0002361F160E070E0CB010E9424
:10112000D82D81E090E0892B59F322C011E01FD522
:10113000EC01892B21F0CE3F8FEFD80759F7111121
:101140001EC011E0229609F410E00E94C31CEC01BD
:10115000892B21F0CE3F8FEFD807E1F6111111C096
:1011600011E0CE3F8FEFD80709F410E001110BC05A
:10117000CE01DF91CF911F910F91FF90089511E063
:10118000E4CF11E0F3CF60E070E0CB010E94D82DF6
:101190001F25812F90E0C7CFCF93DF9380912B0243
:1011A000882321F060E070E0CB0148D631D6D0E052
:1011B000C0E0892B71F06AE070E080E090E00E946E
:1011C000D82D81E090DF24D62196C03727E1D207C1
:1011D00081F723D60E947B1E109243021092420296
:1011E00010923C0210923D0210923E0210923F0279
:1011F000109238021092390210923A0210923B0279
:101200001092340210923502109236021092370278
:101210001092300210923102109232021092330278
:1012200010922C0210922D0210922E0210922F0278
:101230004EEF5FEF6FEF7FEF409304015093050196
:10124000609306017093070110922B02EFE1F2E028
:1012500028E0DF011D922A95E9F710921B021092F7
:101260001C0210921D0210921E0210921702109280
:1012700018021092190210921A0210921302109280
:101280001402109215021092160210920F02109280
:1012900010021092110210921202DF91CF91089564
:1012A00010924F021092500210925102109252026C
:1012B00010924E02809157029091580290934D02E5
:1012C00080934C0210924B0210924A0210924602F6
:1012D0001092470210924802109249021092540252
:1012E0001092530290E080E00895CF92DF92EF9247
:1012F000FF920F931F93CF938C01892B09F055C058
:10130000209157023091580280914C0290914D02E9
:10131000409157025091580250934D0240934C0215
:101320002817390781F010924B0210924A0210924E
:1013300046021092470210924802109249021092FF
:1013400054021092530280915702909158020197D3
:1013500061F58091530290915402892B21F4809180
:101360000801811112C0809153029091540201979B
:10137000E1F48091460290914702A0914802B09119
:1013800049020197A105B10581F41092460210921D
:10139000470210924802109249021092080182E01E
:1013A00090E0909354028093530280915702909161
:1013B0005802019709F01CC180916D0290916E0254
:1013C0008017910709F014C18091690290916A0217
:1013D000A0916B02B0916C02009709F409C12091B1
:1013E000680221110DC04091690250916A0260911A
:1013F0006B0270916C02452B462B472B09F4F8C009
:1014000020915302309154022230310509F0F0C08E
:1014100020914A022111ECC0FC01C080D180E28001
:10142000F38080914E02882309F4D3C080915A0240
:1014300090915B02892B09F4FDC020915A023091F2
:101440005B0281E02230310509F080E020915A02F0
:1014500030915B02C1E02130310549F020915A0200
:1014600030915B02C1E02230310509F0C0E08823F1
:1014700009F456C0209164023091650240916602E1
:1014800050916702C701B6010E94F92787FD14C079
:10149000209164023091650240916602509167028A
:1014A00060914F02709150028091510290915202CE
:1014B0000E94432787FD22C020916402309165027B
:1014C0004091660250916702C701B6010E94F92758
:1014D000181634F52091640230916502409166023D
:1014E0005091670260914F027091500280915102B9
:1014F000909152020E944327811112C080915C0298
:1015000090915D02A0915E02B0915F02892B8A2BBF
:101510008B2B19F481E080934B0281E080934A0287
:10152000CC2309F456C020916402309165024091A9
:10153000660250916702C701B6010E94432787FFE8
:1015400014C020916402309165024091660250916E
:10155000670260914F027091500280915102909108
:1015600052020E94F92787FF22C020916402309125
:1015700065024091660250916702C701B6010E9460
:101580004327811126C02091640230916502409169
:1015900066025091670260914F02709150028091F3
:1015A0005102909152020E94F927181694F48091EA
:1015B0005C0290915D02A0915E02B0915F02892B66
:1015C0008A2B8B2B19F481E080934B0281E080936E
:1015D0004A0281E090914A02911180E080934E028C
:1015E000C0924F02D0925002E0925102F092520209
:1015F000012B09F067C18091530290915402892B0D
:10160000D9F41092590210924A028091080188235D
:1016100079F082E090E0909354028093530210920C
:101620000801209157023091580281E0232BE9F004
:1016300080E01BC081E00ACF10920801809159021E
:10164000882349F010924B021092540210925302D8
:1016500010925902EDCF8091570290915802892B38
:10166000E1F080914A0210924A0220915302309197
:1016700054022230310509F45EC088F42115310589
:1016800009F448C02130310509F4F3C010924B022F
:1016900010924A021092590238C081E0E6CF2330FE
:1016A000310509F4B1C02430310581F7409146027B
:1016B00050914702609148027091490241155105CD
:1016C0006105710561F0415051096109710940934B
:1016D000460250934702609348027093490240913A
:1016E0004602509147026091480270914902452B91
:1016F000462B472BD9F420915502309156022130C8
:10170000310509F046C010924B021092540210921B
:1017100053020CC080910801882341F082E090E0E0
:101720009093540280935302109208011092440245
:1017300080914B02CEC08823C9F380915C029091C6
:101740005D02A0915E02B0915F02181619061A069A
:101750001B060CF07DC080915702909158020197B2
:1017600009F076C080915C0290915D02A0915E02CA
:10177000B0915F028093460290934702A093480283
:10178000B093490283E090E0909354028093530217
:10179000CDCF4091600250916102609162027091E0
:1017A0006302452B462B472BA9F010924B028091E8
:1017B000600290916102A0916202B09163028093F5
:1017C000460290934702A0934802B093490281E0F9
:1017D00090E0DACF882399F08091090190910A0175
:1017E000A0910B01B0910C018093460290934702A7
:1017F000A0934802B093490284E090E0C5CF1092D4
:101800004B0282E090E0C0CF809146029091470267
:10181000A0914802B09149020097A105B10559F085
:101820000197A109B1098093460290934702A093C2
:101830004802B09349028091460290914702A091DC
:101840004802B0914902892B8A2B8B2B09F06ECF6D
:101850008091090190910A01A0910B01B0910C01B6
:10186000892B8A2B8B2B09F44ECF81E080934B027E
:10187000B3CF409146025091470260914802709167
:101880004902411551056105710561F04150510949
:1018900061097109409346025093470260934802E0
:1018A000709349024091460250914702609148026C
:1018B00070914902452B462B472B09F037CF8111F8
:1018C000C7CF9FCF80914402882309F431CF809104
:1018D0004502CF911F910F91FF90EF90DF90CF9035
:1018E000089510924F0210925002109251021092DD
:1018F000520210924E021092540210925302109211
:101900004D0210924C0210926E0210926D021092D3
:101910004B0210924A021092460210924702109215
:10192000480210924902109245021092440210920D
:10193000690210926A0210926B0210926C0210926D
:101940006802109264021092650210926602109270
:10195000670288EE93E0A0E0B0E0809309019093E5
:101960000A01A0930B01B0930C0110926002109237
:101970006102109262021092630210925C02109255
:101980005D0210925E0210925F0210925B02109252
:101990005A0281E080930801109259021092580275
:1019A00010925702109256021092550290E080E079
:1019B00008958091570290915802892BE1F480910B
:1019C0000801882351F080915902811106C081E0FD
:1019D00080934502809344020895809159028823A0
:1019E00041F080910801811104C01092450281E00C
:1019F000F1CF10924402089582E090E0FA019183C1
:101A000080838FEF9FEF0895CF93DF93EA010097D4
:101A100011F00E949B1F1982188290E080E0DF91F4
:101A2000CF910895DB01009719F48FEF8C930895FF
:101A30002EEF2C9340968031910508F036C0FC01C2
:101A4000EC5DF24F0C94C030530D510D4F0D4D0D08
:101A50004B0D490D450D470D430D410D3F0D3C0DFF
:101A6000380D340D3A0D550D80E311968C93089581
:101A700089E2FBCF82E2F9CF11961C92089583E2AE
:101A8000F4CF81E2F2CF81E1F0CF87E2EECF8AE2BC
:101A9000ECCF80E1EACF84E2E8CF88E2E6CF86E2CD
:101AA000E4CF81E3E2CF83E3E0CF80E2DECF809139
:101AB0007B0290917C02089590937C0280937B023C
:101AC000089580917A02089590917A02892B8093EB
:101AD0007A020895982F909580917A0289238093B5
:101AE0007A02089580917902089580917702909109
:101AF000780208956115710559F0FB0130E020E08E
:101B000070E060E02417350719F06115710511F0D8
:101B1000CB010895A081B181A817B90709F4BF01CD
:101B20002F5F3F4F3696EECF80917D0281111CC012
:101B300062D268D29093700280936F020E949D17C8
:101B40000E94AF1790937402809373020E942D1C21
:101B50000E94341C909372028093710281E0809302
:101B60007D0290E080E0089584EF9FEF08958F92CA
:101B70009F92AF92BF92CF92DF92EF92FF920F931C
:101B80001F93CF93DF93CDB7DEB72A970FB6F894A4
:101B9000DEBF0FBECDBF1A86198618861F821E8231
:101BA0001D821C821B821A82198280917D0207EF9E
:101BB0001FEF882309F49CC08E010D5F1F4F9E010B
:101BC0002B5F3F4FAE01495F5F4FBE01675F7F4FA5
:101BD00090E080E00E94AD1D8C01009721F00596F9
:101BE000029708F0DBC029853A852115310509F4F3
:101BF00002C1ED80FE804B815C81B701640F751FCF
:101C00008F8198858617970708F4F5C0E20EF31EBA
:101C1000D7019C91903C09F07FC04230510508F4F7
:101C20007BC011968C9140917B0250917C02452B98
:101C300009F49CC0913F08F071C02CE1290F2D30B0
:101C400008F48BC02DE2290F203108F489C0903CA4
:101C500021F48150823008F483C088E3890F8B30EF
:101C600008F481C092E1C92E9DE0D92EECEFFCE092
:101C70006D817E81AE014F5F5F4F89859A850995A1
:101C80005C01C114D104A1F189809A80811491046E
:101C900079F18B819C818815990508F487C010E043
:101CA00000E04B815C8170E060E0C7010E94E83099
:101CB00001151105E9F449815A8169857A858D817B
:101CC0009E81680F791FC501F6010995E980FA80A8
:101CD0000D811E812F81388549855A856FEF7FEFF1
:101CE00081E090E00E94491D8C01892B09F056C0CB
:101CF000C8012A960FB6F894DEBF0FBECDBFDF91A4
:101D0000CF911F910F91FF90EF90DF90CF90BF90F8
:101D1000AF909F908F90089580E085CF30E020E0D5
:101D2000220F331FF901E159FD4F0190F081E02DA1
:101D3000309709F497CF892F90E00995009709F41F
:101D400091CFDC011296ED91FC9113971496CD90F2
:101D5000DC90309709F08CCF1FC021E030E0E0CF5D
:101D600022E030E0DDCF23E030E0DACFD12CC12C0F
:101D7000E4E0FDE09F3F09F07BCFE0916F02F0913E
:101D80007002309721F4C90104EF1FEF0CC08FEFF0
:101D900090E009950097A9F604EF1FEF89859A85D1
:101DA000009709F4A5CF0E949B1FA2CF0E94761E28
:101DB0008C0189859A850E949B1F70E060E0C401B8
:101DC0000E940F1E98878F830E94461D9E838D83DD
:101DD0006F8178856115710559F0C8010E9427212E
:101DE0009A87898706EF1FEF892B09F058CF59CFC3
:101DF00008EF1FEF56CF08EF1FEFD0CF20917D02E5
:101E0000222319F020E00C94B41787EF9FEF089578
:101E100080917B0290917C0208950E94391C0E945F
:101E2000931BF5D0EFE6F2E088E0DF011D928A9582
:101E3000E9F710927D0290E080E008950C94F0198B
:101E400021E040E050E0BA010C94B41786E090E045
:101E5000FA019183808390E080E0089547E050E0AC
:101E600060E371E047CEDF92EF92FF920F931F93F2
:101E7000CF93DF938A01EC01C60FD71FE090810258
:101E8000F0908202D9800E945E1ED816190678F062
:101E900082E090E0F801918380838EEF9FEFDF91E5
:101EA000CF911F910F91FF90EF90DF900895EF2851
:101EB00041F482E090E0F8019183808384EF9FEF0A
:101EC000EECF89818093800290E00196F8019183A2
:101ED000808390E080E0E3CFCF93DF93EA010E941C
:101EE000A11A882321F00E946B1E0E94A21A82E090
:101EF00090E0998388838BEF9FEFDF91CF910895D6
:101F0000CF93DF93EB0186E0FB0111928A95E9F70D
:101F10008FEF8883D6DD8983E5DD8A83E6DD9D83C7
:101F20008C83DF91CF910895CF93DF93EA010E94D4
:101F3000A41A811109C082E090E09983888385EF1B
:101F40009FEFDF91CF91089590E080E0B5DD81E0D3
:101F500090E09983888390E080E0F3CF0F931F9304
:101F6000CF93DF93EA018C01060F171F0E94A41A7A
:101F700081110BC082E090E09983888385EF9FEF09
:101F8000DF91CF911F910F910895F80181818230E7
:101F900038F082E090E0998388838EEF9FEFF0CF56
:101FA00081E090E089DD88E090E09983888390E08B
:101FB00080E0E6CFCF93DF930097D1F4EB01FB01F4
:101FC000329686E0DF011D928A95E9F78FEF8883CC
:101FD00085E089831A820E945E1E8B830E945D1EAB
:101FE0009D838C8381E08E838F83DF91CF910895D1
:101FF000DF91CF9117CD8EE29FE090937F02809387
:102000007E02089580917E0290917F020895109241
:102010007F0210927E020895809181029091820247
:102020000895411105C0611571058105910561F0A3
:102030006093810270938202809383029093840262
:102040004093850281E0089580E00895FF920F9308
:102050001F93CF93DF938A01EC01C60FD71FF9803E
:102060000E945E1EF816190668F082E090E0F80102
:10207000918380838EEF9FEFDF91CF911F910F911E
:10208000FF9008956C817D818E819F814B81C9DF96
:10209000811108C082E090E0F8019183808384EF91
:1020A0009FEFEACF89818093800290E00196F8014A
:1020B0009183808390E080E0DFCFCF93DF93EA01CC
:1020C000FC01E60FF71F648175818681978143814A
:1020D000A8DF811109C082E090E09983888384EFB2
:1020E0009FEFDF91CF91089581E090E099838883FD
:1020F00090E080E0F6CFE1E8F2E04081518162813A
:102100007381480F511D611D711D4083518362838E
:1021100073830895CF93C09180024C2F50E060915B
:1021200081027091820201960E94DF308C2FE3DFE2
:1021300010928002CF910895009799F480918102C6
:10214000909182022FEFFB012083892B59F020917F
:10215000800230E02F5F3F4F2417350719F4CB0181
:10216000D9CF60CC0895009799F480918102909125
:1021700082022FEFFB012083892B59F020918002EE
:1021800030E02F5F3F4F2417350719F4CB01C2CF42
:1021900049CC089523E1AC01249FC001259F900DF7
:1021A0001124E0918A02F0918B02E80FF91F23813C
:1021B00034812250310981E02230310508F080E07D
:1021C00008950F931F93CF93DF9300918C0210918A
:1021D0008D02D0E0C0E080E00C171D0749F491E0CB
:1021E000811190E0892FDF91CF911F910F91089578
:1021F0008111F5CFCE01CEDF2196EECFA0918A02DC
:10220000B0918B02109729F120918C0230918D02B0
:1022100082179307F0F453E1589F9001599F300DB6
:102220001124A20FB31FED91FC911197309789F003
:1022300012968C91681768F48DE0689FE00DF11D8F
:10224000112480819181892B21F081E092814917AD
:1022500008F080E008959C0143E1429FC001439F44
:10226000900D1124E0918A02F0918B02E80FF91F82
:102270008385823091F481E090E0658176814091A0
:102280000D0150910E016417750711F490E080E084
:10229000892B19F081E0232B09F080E00895FC01DF
:1022A000A081B1818DE0689FA00DB11D112413960E
:1022B0004D915C9185859685489F9001499F300D91
:1022C000589F300D1124C9010196611103C0478147
:1022D00044FD04960895EF92FF920F931F93CF93BE
:1022E000DF93EA01FC01E60FF71F02811381E4800E
:1022F000F5804F2D6E2DC80181DF81110DC082E068
:1023000090E0998388838EEF9FEFDF91CF911F91AB
:102310000F91FF90EF900895C8013CDF882339F0BA
:1023200082E090E09983888388EF9FEFEECF10934F
:10233000140100931301E0921501F092160181E05F
:1023400090E09983888390E080E0DFCFCF92DF92A6
:10235000EF92FF920F931F93CF93DF937A01EC01DB
:10236000C60FD71FC0901301D09014010091150122
:1023700010911601412F602FC60140DF811110C05E
:1023800082E090E0F701918380838AEF9FEFDF91F5
:10239000CF911F910F91FF90EF90DF90CF90089514
:1023A000C601F8DE882341F082E090E0F7019183D6
:1023B000808388EF9FEFEBCF4C815D816E817F81C1
:1023C0009A8189818F3F41F082E090E0F70191830B
:1023D00080838EEF9FEFDBCFE3E1EC9D9001ED9DDD
:1023E000300D1124E0918A02F0918B02E20FF31F6D
:1023F0000190F081E02D2DE0029FE00DF11D1124F0
:102400000190F081E02D27E0129FE00DF11D1124D5
:10241000808391838B818283438354836583768316
:102420001F5F1093160181E090E0F7019183808394
:1024300090E080E0ACCFEF92FF920F931F93CF9389
:10244000DF937A018C01060F171FC0918A02D09189
:102450008B02209781F021E030E0F80182819381A6
:1024600040918C0250918D028417950710F030E056
:1024700020E0232B71F482E090E0F70191838083C8
:102480008EEF9FEFDF91CF911F910F91FF90EF9013
:10249000089543E1489F9001499F300D1124C20FD8
:1024A000D31F78DE882341F082E090E0F70191832A
:1024B000808388EF9FEFE6CFF801248135812038B3
:1024C0003105C8F687818111D6CF4181842F90E0F4
:1024D0008F7E009741F082E090E0F7019183808346
:1024E00086EF9FEFCFCF4F833E832D8326812887B2
:1024F0001986223010F421E0288721E030E0F7012E
:1025000031832083BFCF88E090E0FA0191838083FC
:1025100090E080E00895FB018FEF808381E181836B
:102520008FEF9FEF9383828380E890E0958384838D
:10253000168217820895FB018FEF808391E09183CB
:1025400082839383848384E3858381E090E097830F
:102550008683089582E090E0FA019183808380EF82
:102560009FEF0895DF92EF92FF920F931F93CF9307
:10257000DF93EA01FC01E60FF71F8181813071F0E2
:1025800082E090E0998388838FEF9FEFDF91CF9176
:102590001F910F91FF90EF90DF90089582819381BA
:1025A000D4802581E680F78000918A0210918B0209
:1025B0000115110539F482E090E0998388838CEF4E
:1025C0009FEFE4CF40918C0250918D0284179507C4
:1025D00038F082E090E0998388838EEF9FEFD6CF2A
:1025E000892B39F082E090E09983888386EF9FEF12
:1025F000CDCF8D2D8D7FB1F72130A1F781E0D110A6
:1026000006C091E0E916F10431F080E004C0E2E098
:10261000EE16F104D0F3882329F390E080E0BADDD0
:10262000882339F082E090E09983888388EF9FEFD8
:10263000ADCFF801D38681E08487F686E586108ADF
:10264000178681E090E09983888390E080E09ECFB8
:102650004DE050E06AE571E04DCA8F929F92BF92C3
:10266000CF92DF92EF92FF920F931F93CF93DF935E
:10267000EA01FC01E60FF71F828193810481B58096
:10268000E0918A02F0918B02309791F482E090E021
:10269000998388838CEF9FEFDF91CF911F910F91EA
:1026A000FF90EF90DF90CF90BF909F908F90089514
:1026B00020918C0230918D028217930738F082E0CE
:1026C00090E0998388838EEF9FEFE6CF23E1289FE8
:1026D0006001299FD00C1124EC0DFD1DE080F180DC
:1026E000E114F10499F28281081748F78DE0089F00
:1026F00080011124E00EF11EF70180819181892B68
:1027000029F6BB20E1F2F7E0BF9E40011124C4018D
:102710000E94621FF70191838083E0918A02F09109
:102720008B02EC0DFD1D0190F081E02DE00FF11FFB
:1027300080819181009739F482E090E099838883C9
:102740008DEF9FEFA9CFA40170E060E00E94E83018
:1027500080918A0290918B02C80ED91EF601808169
:102760009181080F191FF801B28281E090E09983EE
:10277000888390E080E090CFAF92BF92CF92DF92BB
:10278000FF920F931F93CF93DF93EA01FC01E60FB3
:10279000F71F82819381F48000918A0210918B024D
:1027A0000115110581F482E090E0998388838CEF14
:1027B0009FEFDF91CF911F910F91FF90DF90CF900E
:1027C000BF90AF90089520918C0230918D028217B6
:1027D000930738F082E090E0998388838EEF9FEF33
:1027E000E8CF2FEF2F0D2C3FA8F723E1289F6001A2
:1027F000299FD00C11240C0D1D1DF80180819181A1
:10280000892B89F6FDE0FF9E50011124C5010E942D
:10281000621FF80191838083E0918A02F0918B021C
:10282000EC0DFD1D80819181009739F482E090E0EC
:10283000998388838DEF9FEFBCCFA50170E060E0A6
:102840000E94E830E0918A02F0918B02EC0DFD1DB0
:10285000F28281E090E09983888390E080E0A9CFC4
:10286000CF92DF92EF92FF920F931F93CF93DF935C
:10287000860F971FFC010281138180918A0290913B
:102880008B02892B81F082E090E0FA0191838083B2
:102890008CEF9FEFDF91CF911F910F91FF90EF9001
:1028A000DF90CF900895C801B0E0A0E00197A109A2
:1028B000B1098F3F9F4FA105B10540F082E090E044
:1028C000FA01918380838EEF9FEFE4CF7A0183E159
:1028D000809F6001819FD00C1124C6010E94621F5D
:1028E000EC01009741F482E090E0F701918380834E
:1028F0008DEF9FEFCFCFA60170E060E00E94E8303F
:10290000D0938B02C0938A0210938D0200938C02A5
:1029100090E080E02FEF3FEF41E061E070E0801752
:10292000910741F481E090E0F7019183808390E08A
:1029300080E0B0CF3A8B298B1B864C877E876D87D2
:10294000188A1F8601966396EACFEF92FF921F9333
:10295000CF93DF93EC0110E0F12CE12C6A81161784
:10296000A8F070E0660F771FAE014F5E5F4FC701A2
:102970000E94C71F009721F02FEF3FEF3A8B298B62
:10298000DF91CF911F91FF90EF900895612FCE01BD
:1029900086DC61E070E00E940F1EE816F90608F47C
:1029A0007C011F5FDBCFF89420918802309189026F
:1029B00081E02115310509F080E0232B09F078949E
:1029C00008952F923F924F925F926F927F928F92D3
:1029D0009F92AF92BF92CF92DF92EF92FF920F93AE
:1029E0001F93CF93DF933C01660E771EF301828124
:1029F00093814C01B12CA12CC0918A02D0918B0201
:102A0000209769F021E030E060918C0270918D0296
:102A10008617970710F030E020E0232BD1F482E0F6
:102A200090E0FA01918380838EEF9FEFDF91CF9149
:102A30001F910F91FF90EF90DF90CF90BF90AF90DC
:102A40009F908F907F906F905F904F903F902F90CE
:102A500008958092170190921801A0921901B092E6
:102A60001A0163E1689F9001699F300D1124C20F24
:102A7000D31FF3018181833040F082E090E0FA01BE
:102A80009183808386EF9FEFD1CF2A012B813C81F8
:102A9000232BF1F4288139819F8191FF2EC0232BB4
:102AA00009F46FC020918F029A81422F490F552758
:102AB000551FBA0141E050E06138710514F050E053
:102AC00040E0452B09F45DC02A87920F90938F0256
:102AD0008150823008F481C066DF882309F4D8C0B1
:102AE000F3018181813009F48DC008F47BC082300C
:102AF00009F4C6C090E080E0ADC0232B09F441C0CA
:102B000020918E029A81E22FE90FFF27FF1F41E0FB
:102B100050E0ED3FF10514F050E040E0452B89F125
:102B20002A87920F90938E02D3CFA081B181A20FFA
:102B3000B31F11966C91060F111D0196295F3F4F2F
:102B40008417950794F38D859E85089F1001099F32
:102B5000300C189F300C1124C114D104D1F48F8192
:102B600084FF17C00E945D1EF5E02F0E311C21E08E
:102B70008215930508F420E0A701435F5F4F211100
:102B80000EC082E090E0F2019183808387EF9FEF97
:102B90004DCF0E945D1E2FEF221A320AE8CF8881A6
:102BA0009981E80EF91EF70114830383FFEFCF1A12
:102BB000DF0A7A018A818C151D0409F00CF48CCF90
:102BC000E881F981EE0DFF1D428150E030E020E008
:102BD00010E000E090E080E0B3CFF12CE12CD12CAC
:102BE000C12CE8CF81E090E09C838B83EADA8823D4
:102BF00009F480CF81E090E00E945C0D80E40E94A7
:102C00006A0D78CF89899A89019661F083E090E016
:102C10009C838B8382E090E00E945C0D80E40E94A4
:102C2000640D68CF8D819E8120910D0130910E0140
:102C300082179307D1F46091110170911201AE01D6
:102C40004F5E5F4F80910F01909110010E94E6202E
:102C50000097E1F2789422E030E0F20131832083A2
:102C6000892B99F08DEF9FEFE1CE89288A288B2858
:102C700069F6892B59F6CE0168DE188A1F86E8CFDF
:102C800082E090E09C838B8335CF90E080E0CECED5
:102C900082E090E0F2019183808385EF9FEFC6CEC2
:102CA0008F929F92AF92BF92CF92DF92EF92FF925C
:102CB0000F931F93CF93DF93EA018C01060F171F29
:102CC000F8018181833098F082E090E099838883D5
:102CD00086EF9FEFDF91CF911F910F91FF90EF90C3
:102CE000DF90CF90BF90AF909F908F90089580918C
:102CF0008A0290918B02892B61F081E090E0209113
:102D00008C0230918D02232B11F490E080E0892B0E
:102D100039F482E090E0998388838EEF9FEFDACFD9
:102D200042DE882309F4DFC0F8018181813009F493
:102D300095C0E8F0823099F420918C0230918D0298
:102D4000E0918A02F0918B0290E080E041E050E057
:102D50002817390709F0BDC034DA811117C07894FB
:102D600081E090E09983888390E080E0B3CF209168
:102D70008C0230918D02E0918A02F0918B0290E0FA
:102D800080E041E050E02817390741F481E090E00D
:102D90000E945C0D80E40E946A0DE1CF6381748122
:102DA000672B11F05483438301967396ECCFE09127
:102DB0008A02F0918B02E00FF11F238134812230CF
:102DC0003105D9F4218932892F3F3F4FB1F4258154
:102DD000368140910D0150910E012417350761F5A0
:102DE000AF014F5E5F4F60911101709112018091B0
:102DF0000F01909110010E94E620EFEFCE1ADE0A3B
:102E0000EE0AFE0A0D5E1F4F40918C0250918D021A
:102E100070E060E0C416D506E606F7063CF50097BC
:102E200031F27894892B09F49BCF82E090E099836A
:102E300088838DEF9FEF4ECFC114D104E104F104DC
:102E4000E1F6232BD1F6CF0180DDE0918A02F091EB
:102E50008B02E00FF11F108A1786CFCF10E000E041
:102E600090E080E0C12CD12C7601CECF0097C9F63E
:102E700010E000E0812C912C540183E0E82EF12C2D
:102E80001AC0E0918A02F0918B02E00FF11F83815A
:102E90009481029749F4F482E38282E090E00E94F8
:102EA0005C0D80E40E94640DFFEF8F1A9F0AAF0A49
:102EB000BF0A0D5E1F4F80918C0290918D02B0E091
:102EC000A0E088169906AA06BB06DCF290E080E036
:102ED000A8CF638174816230710511F454834383F8
:102EE0000196739635CF82E090E09983888385EFD1
:102EF0009FEFF0CE0097B9F48FEFFB018083209114
:102F000017013091180143E1429FC001439F900D8A
:102F10001124E0918A02F0918B02E80FF91F82855B
:102F2000FB01818308950C94120D88E090E0FA0172
:102F30009183808390E080E008951092890210923E
:102F40008802EAE8F2E086E0DF011D928A95E9F75F
:102F500088E293E19093870280938602089580919E
:102F600086029091870208952F923F924F925F922E
:102F70006F927F928F929F92AF92BF92CF92DF9289
:102F8000EF92FF920F931F93CF93DF93CDB7DEB7EE
:102F90002F970FB6F894DEBF0FBECDBFF894E09127
:102FA0008802F09189023196F0938902E0938802B9
:102FB000789440908A0250908B024114510409F495
:102FC0000CC2E0918C02F0918D02EF2B09F405C246
:102FD0002D8749875A876B877C8798878F83120153
:102FE000B12CA12C10E000E080918C0290918D0218
:102FF000A816B90618F40115110529F1F894809165
:1030000088029091890201979093890280938802A7
:103010007894C8012F960FB6F894DEBF0FBECDBFCF
:10302000DF91CF911F910F91FF90EF90DF90CF90A4
:10303000BF90AF909F908F907F906F905F904F90D8
:103040003F902F9008957101E418F508D10117966B
:103050008C91179781FD54C013968D919C91149774
:10306000039709F04DC015968D919C91EF81F885DD
:103070008E179F0709F044C0B50190E080E07ED430
:103080008A8320918A0230918B023D832C833D8577
:10309000332309F44CC04C815D81452B09F49AC15E
:1030A00080918C0290918D02A816B90608F092C109
:1030B000C501D1D88823E9F06C817D816E0D7F1D1B
:1030C0007D836C83DB011F968D919C91892B89F008
:1030D000D12CC12CF12CE12CAC81BD8112968C91AC
:1030E00012978E151F0409F094F450961C921E92AC
:1030F0001F972A81222321F0B50190E080E040D47F
:103100003FEFA31AB30A43E1240E311C6DCFAC810B
:10311000BD81ED91FC91EC0DFD1D858196810BD754
:10312000BFEFEB1AFB0AEDE0CE0ED11CD5CFEC8140
:10313000FD81309709F44EC180918C0290918D02EF
:10314000A816B90608F046C1EE0DFF1DFF87EE87F1
:10315000C50181D88B83882339F1AE85BF851F9641
:103160008D919C915097019621E01D964D915C9117
:103170008417950709F020E02E831982712C10E046
:1031800000E0AE85BF8512968C91781608F45DC07C
:10319000EE85FF85878590890196658576850E94F5
:1031A0008A30908B8787A5CFB1E0BE83E6CF992484
:1031B00093946BC087D6F6019683858382C0D6012F
:1031C000ED90FC90B7E06B9EE00CF11C1124F70130
:1031D0006381748180818F3F61F121E030E002C022
:1031E000220F331F8A95E2F7C901092E000CAA0BA2
:1031F000BB0BFB0140815181628173818423952344
:10320000A623B72321E0892B8A2B8B2B09F420E0FE
:10321000D4012C93D70111968C91F6012385348526
:10322000820F932F911D880E991E14861386639426
:103230009BC0418150E0C4010E94DF30EBCF9982F6
:1032400006EF1FEFC5C01982C3C0F981F111A0CFED
:10325000EDE07E9E70011124AE85BF85CD90DC909F
:10326000CE0CDF1C13D49D838C83BB81BB2309F45C
:103270009ECF81E0EE85FF8527853089232B09F0DD
:1032800080E0982E882309F458C0672D8E859F858D
:1032900006D8D60118969C938E93179761E070E03C
:1032A000BED4EE85FF85218932892F3F320709F48C
:1032B00081CFBC01C901CBD7D60116969C938E93C2
:1032C0001597D60115968D919C911697009709F444
:1032D000B6CFEC81FD818E0F9F1F1A969C938E9323
:1032E0001997AE85BF85ED91FC911197EE0EFF1EEB
:1032F000F70121853285148613861A968C91870DE5
:10330000D9018D93711016C0EE85FF85878184FFEA
:1033100011C049855A856B857C85F90141835283AB
:1033200063837483F701838594850496A80FB91F7E
:1033300014861386F701B287A187D60115968D9161
:103340009C911697892B09F443C0EE85FF85258152
:10335000368180910D0190910E012817390779F07F
:1033600019968D909C90612CD60112968C91129793
:10337000681608F424CF1A969C928E921997BE81F3
:10338000BB2309F460CF61E070E0F601878190858E
:1033900046D4D6011796ED90FC90189715964D914E
:1033A0005C91E1E0F0E0BA81BB2311F0F0E0E0E0F5
:1033B0000C811D819C01B501882799278E1B9F0BCD
:1033C00068D38C01892B21F0F60185819681B3D5D4
:1033D0007394D7CE0FEF1FEF8CCE10E000E00ECE2F
:1033E0002F923F924F925F926F927F928F929F9215
:1033F000AF92BF92CF92DF92EF92FF920F931F9303
:10340000CF93DF9380918A0290918B0210E000E0CD
:10341000892BA9F0C8DA0AEF1FEF882381F02090EA
:103420008C0230908D02C0918A02D0918B02D12CF7
:10343000C12C10E000E02C143D04A9F47894C801DC
:10344000DF91CF911F910F91FF90EF90DF90CF9080
:10345000BF90AF909F908F907F906F905F904F90B4
:103460003F902F900895C6010E942B11882309F1E7
:103470008B819C810397E9F48F859889892BC9F00A
:10348000B60190E080E07AD221E030E0882311F0AC
:1034900030E020E044245524421A530AB12CA12CD8
:1034A000912C812C8A818815190409F038F4188A26
:1034B0001F864FEFC41AD40A6396BDCFE881F98105
:1034C000EA0DFB1D85819681892BA1F161E070E0F9
:1034D00087819085A4D33C01D9D28C01E881F98100
:1034E000EA0DFB1D8185928525813681200F311FD4
:1034F000AC01421B530B9A0147815085421B530B71
:1035000070E060E00E94E830E881F981EA0DFB1D7F
:10351000E780F084458156819301B601C201B9D29A
:103520008C01892B39F0E881F981EA0DFB1D858139
:10353000968101D55FEF851A950A8DE0A80EB11C22
:10354000B1CF31CA789408952F923F924F925F92F3
:103550006F927F929F92AF92BF92CF92DF92EF9243
:10356000FF920F931F93CF93DF9300D000D000D032
:10357000CDB7DEB700918A0210918B029924939403
:103580000115110509F43EC0A0908C02B0908D0287
:103590000ADA982E8823B1F110928B0210928A02D7
:1035A00010928D0210928C0210928E0210928F0255
:1035B0008FEF9FEFDC018093170190931801A09388
:1035C0001901B0931A0178947AD31E830D83C12C0C
:1035D000D12C7601C501B0E0A0E089839A83AB834A
:1035E000BC8322242A94322C89819A81AB81BC81AC
:1035F000C816D906EA06FB06F4F0C8019CD480E49C
:103600000E946A0D892D26960FB6F894DEBF0FBE74
:10361000CDBFDF91CF911F910F91FF90EF90DF9081
:10362000CF90BF90AF909F907F906F905F904F90A2
:103630003F902F900895AD81BE8115968D919C91FC
:10364000169720910D0130910E0182179307D1F446
:1036500051968D919C91E9D5ED81FE81808191817A
:10366000B12CA12C412C512C3201892B89F5BFEFB3
:10367000CB1ADB0AEB0AFB0AED81FE817396FE830F
:10368000ED83B2CFC114D104E104F10429F7892BF1
:1036900019F7ED81FE81818992898F3F980709F0A2
:1036A00024D5AD81BE8152963C922E925197D4CFB3
:1036B0008A0D9B1DDC018D919C91009709F03BD4F4
:1036C000BFEF4B1A5B0A6B0A7B0AEDE0AE0EB11C32
:1036D000AD81BE818D919C91119712964C9150E0D5
:1036E00070E060E044165506660677060CF323D4B6
:1036F000BECFCF93DF93EA0127DF811109C082E0BB
:1037000090E09983888385EF9FEFDF91CF910895B3
:1037100081E090E00E945C0D81E090E099838883D5
:1037200090E080E0F2CF10DF1092870210928602C4
:10373000089542E050E068EA71E00C947A0DFF923F
:103740000F931F93CF93DF938A01EC01C60FD71F0E
:10375000F980B4D20897F816190671F068F082E083
:1037600090E0F801918380838EEF9FEFDF91CF91FE
:103770001F910F91FF9008956C817D818E819F81B3
:103780004B810E941110811108C082E090E0F80185
:103790009183808384EF9FEFE9CFF9800E940C1022
:1037A0004F2D50E0BE01685F7F4F0E94DF3089815E
:1037B0000E947B1081E090E0F8019183808390E08B
:1037C00080E0D4CFDF92EF92FF920F931F93CF93BD
:1037D000DF938A01EC01C60FD71F0E940C107C01F9
:1037E000D9806CD2DD2059F0029721E030E0D81664
:1037F000190619F010F030E020E0232B79F482E074
:1038000090E0F801918380838EEF9FEFDF91CF915D
:103810001F910F91FF90EF90DF900895EF2841F4F2
:1038200082E090E0F8019183808384EF9FEFEECFF8
:10383000F9800E940C104F2D50E0BE016E5F7F4F4B
:103840000E94DF3089810E947B1081E090E0F801C6
:103850009183808390E080E0D9CF89E99BE19093C8
:10386000910280939002089580919002909191022C
:1038700008950895FC011182108293838283089534
:10388000DB011D921C92DC011296ED91FC911397C5
:103890007183608313967C936E9312970895FC0155
:1038A00080819181DB018D939C93A081B1811097E0
:1038B00041F08D919C9191838083892B11F4F38346
:1038C000E2830895FC0180819181DB018D939C93BB
:1038D000892B11F473836283718360830895FC01E3
:1038E00011821082938382830895CF93DF9300D057
:1038F000CDB7DEB71A821982F894BE016F5F7F4F91
:1039000087E992E0CCDF89819A81009709F013D38F
:1039100089819A81892B89F7BE016F5F7F4F8BE97F
:1039200092E0BDDF89819A81009709F004D38981F3
:103930009A81892B89F778940F900F90DF91CF911E
:103940000895CF93DF9300D0CDB7DEB71A821982E6
:10395000F894BE016F5F7F4F83E992E0A0DF898119
:103960009A81009709F0E7D289819A81892B89F79A
:1039700078940F900F90DF91CF91089581E0089592
:1039800090E080E00895EF92FF920F931F93CF9302
:10399000DF9300D0CDB7DEB71A82198280919202F0
:1039A00007EF1FEF8823A1F1F894BE016F5F7F4FEF
:1039B0008BE992E074DF789489819A81EE24E39414
:1039C000F12C892B51F4F894BE016F5F7F4F87E98A
:1039D00092E065DF7894F12CE12C89819A810EEFD9
:1039E0001FEF0097A9F0FC014281538164E070E071
:1039F00072D68C01892B61F0F89469817A81C701B4
:103A0000880F991F880F991F89569D4F5BDF789407
:103A1000C8010F900F90DF91CF911F910F91FF90F0
:103A2000EF9008950F931F93CF93DF9300D000D0B2
:103A3000CDB7DEB71C821B821A8219828091920256
:103A400007EF1FEF8823C1F0AE014D5F5F4F64E0C9
:103A500070E0CE010196B2D68C01892B69F4E98120
:103A6000FA818B819C8193838283F89469817A8126
:103A700083E992E005DF7894C8010F900F900F90D2
:103A80000F90DF91CF911F910F910895B7D70496B2
:103A900008958F929F92AF92BF92CF92DF92EF9252
:103AA000FF920F931F93CF93DF9300D0CDB7DEB774
:103AB0001A821982BC016F5F7F4F6330710598F0E5
:103AC000AA24AA94BA2CC5010F900F90DF91CF9130
:103AD0001F910F91FF90EF90DF90CF90BF90AF902C
:103AE0009F908F9008954115510551F34801590158
:103AF0008A016C01CBDF8815990511F7E114F104F7
:103B0000F9F28E0D9F1DA816B906D0F2809192028F
:103B10008823F1F0F894B501645071099701AE0162
:103B20004F5F5F4FC8010496DED65C01892B71F4AC
:103B300089819A81F80193838283C601880F991F36
:103B4000880F991FB80189569D4F9ADE7894BBCF94
:103B500087EFA82EBB24BA94B6CFAF92BF92CF9274
:103B6000DF92EF92FF920F931F93CF93DF9300D0DA
:103B7000CDB7DEB71A821982892B09F047C06115CB
:103B8000710509F443C04115510509F43FC02115E1
:103B9000310509F43BC001151105C1F18091920274
:103BA0008823B9F179016A015B01F894BE016F5F66
:103BB0007F4F83E992E073DE789489819A81009740
:103BC00059F1DC0112966D917C91A8010496A4D65E
:103BD0008C01E981FA81D501ED93FC938281938177
:103BE0000496F6019183808351DFD7018D939C93D6
:103BF000C8010F900F90DF91CF911F910F91FF900F
:103C0000EF90DF90CF90BF90AF9008950FEF1FEF30
:103C1000EFCF07EF1FEFECCF0EEF1FEFE9CFCF9302
:103C2000DF93EC01672B71F4F2D68C179D0760F0DF
:103C3000E5D62496C80FD91FE4D68C0F9D1FDF91BF
:103C4000CF910895E1D6F1CF90E080E0F8CF0F93C7
:103C50001F93CF93DF932091920221112BC08B01F0
:103C6000EC0187E992E006DE8BE992E003DE83E96E
:103C700092E000DE97D00097C1F4C9D670E060E012
:103C8000CEDF4BE151E062E070E081D1009769F452
:103C900080911B0190911C01CCD6B801CE0101D5B9
:103CA000009719F421E020939202DF91CF911F91A8
:103CB0000F91089584EF9FEFF8CFA6C6A8C6CF93C3
:103CC000DF93A8D6EC01892B11F40FDE3ADECE018A
:103CD000DF91CF910895CF93DF939CD6EC01892B90
:103CE00009F403DECE01DF91CF91089580911B018D
:103CF00090911C010895CF93DF9380919202D0E0C0
:103D0000C0E08823D1F09AD6EC01892BB1F4EDDD27
:103D100018DE80911B0190911C01E7D1E8D2EC01E3
:103D2000892B59F487E992E0DADD8BE992E0D7DD5F
:103D300083E992E0D4DD10929202CE01DF91CF911F
:103D40000895EF92FF920F931F93CF93DF93EC01AF
:103D50007A018B010F5F1F4F0E9DA0010F9D500D2B
:103D60001E9D500D112470E060E00E94E83090E04C
:103D700080E0F0E0E0E02FEFE816F90639F4DF919B
:103D8000CF911F910F91FF90EF9008951A821982A1
:103D90002883309711F0D283C1830196FE01C00FB2
:103DA000D11FEACFCF92DF92EF92FF920F931F9332
:103DB000CF93DF930BEC13E00C7F43E050E06DE119
:103DC00071E083E291E01AD48DE1E82E81E0F82ED3
:103DD00093E2C92E91E0D92ECAE3D4E0D7014D91E8
:103DE0005D917D01F601619171916F0119830883E5
:103DF0005D834C835B834A837F836E839B012F5F4C
:103E00003F4F249FC001259F900D349F900D11249A
:103E1000998788870115110511F0C80192DF8885FF
:103E20009985080F191F2A96F3E2EF16F1E0FF06B5
:103E3000A9F6E1EAF2E087E291E0DF019C011D9240
:103E400021503040E1F71092A00210929F02109290
:103E500059041092580410925D0410925C04109260
:103E60005B0410925A0410925F0410925E04109248
:103E70006104109260041092630410926204109224
:103E80006704109266041092650410926404109204
:103E900069041092680410926B0410926A041092E4
:103EA000370410923604109239041092380490E0CE
:103EB00080E0DF91CF911F910F91FF90EF90DF9005
:103EC000CF9008950097F1F0F894A3E2B1E0EAE30F
:103ED000F4E030E020E04D915D9148175907A8F0DB
:103EE000428153814115510581F08AE0829FF001A2
:103EF000839FF00D1124E65CFB4F80819181009738
:103F000059F4789490E080E008952F5F3F4F3A96FF
:103F10002330310501F7F5CFDC0111966D917C91CD
:103F2000718360834150510953834283FC01219383
:103F3000CF0178940895009749F1DC018E91853086
:103F400041F4E0913804F09139043097F9F0CD0153
:103F500009948530D8F4282F30E0F8948FEF8C93B3
:103F60008AE0829FF001839FF00D1124E65CFB4FF5
:103F70008081918112969C938E931197B183A08337
:103F80008281938101969383828378940895CF925E
:103F9000DF92EF92FF920F931F93CF93DF939C01D9
:103FA00084EA92E08C7F4115510509F49BC02115EC
:103FB000310509F497C06115710509F493C07A01C0
:103FC000AB01B9016D5F7F4F6C7F9B012F5F3F4F4E
:103FD000249F8001259F100D349F100D1124F8940B
:103FE0002091580430915904232B59F420916004F6
:103FF000309161042115310569F12017310708F06E
:1040000058C02091620430916304232B91F42091D5
:10401000600430916104820F931F20916A043091F3
:104020006B042115310509F441C02017310708F050
:1040300056C07894CFEFDFEF86EF9FEFF701D18383
:10404000C083DF91CF911F910F91FF90EF90DF9090
:10405000CF900895C3E0D0E0C0909F02D090A0021E
:1040600024E231E02C193D092017310710F32AE032
:104070002C9FF0012D9FF00D1124E65CFB4F9183E6
:104080008083558344835383428377836683118778
:104090000087009709F055DE0C0D1D1D1093A0023E
:1040A00000939F02789490E080E0C8CFC4E0D0E015
:1040B000D3CFC3E0D0E02AE02C9FF0012D9FF00D7C
:1040C0001124E65CFB4F91838083558344835383A3
:1040D000428377836683009729F333DEE3CFC4E01E
:1040E000D0E0E9CF8FEF9FEFACCF9C010397029711
:1040F00008F069C0F89484E09AE0482F50E0241753
:1041000035070CF44DC091E08AE0829FF001839F57
:10411000F00D1124E65CFB4F11821082158214828F
:1041200013821282178216829923B1F1809158046A
:1041300090915904892BA9F4209160043091610475
:104140002115310571F080919F029091A002821B90
:10415000930B9093A00280939F021092610410929F
:1041600060048091620490916304892BA9F42091EA
:104170006A0430916B042115310571F080919F0222
:104180009091A002821B930B9093A00280939F02B8
:1041900010926B0410926A04789490E080E0089585
:1041A000949FF001959FF00D1124E65CFB4F408138
:1041B0005181452B31F440855185452B11F48150B7
:1041C0009CCF90E0A1CF8FEF9FEF0895411551054F
:1041D00049F1009739F16115710521F1F8942091A9
:1041E000360430913704232BB9F4209138043091F0
:1041F0003904232B89F49093370480933604709309
:10420000390460933804789425E030E090E080E051
:10421000FA0131832083089578942FEF3FEF86EFE2
:104220009FEFF6CF8FEF9FEF0895059769F4F8940D
:104230001092370410923604109239041092380408
:10424000789490E080E008958FEF9FEF08956115D6
:10425000710519F4F0E0E0E011C08530910581F4BA
:10426000E0913604F09137043097A1F3CB01019629
:104270000995009779F3FC0185E08193CF010895BA
:104280009C01235031092230310520F72AE0289F74
:10429000D001299FB00D1124A65CBB4F2D913C91FC
:1042A0001197232BB9F216962D913C91179726174B
:1042B000370780F2F89412962D913C9113972115AF
:1042C000310529F0ED91FC911197309711F4789414
:1042D000C1CF4181528111965C934E932150310997
:1042E00013963C932E93129781937894C7CFE8EC62
:1042F000F3E08EE6DF011D928A95E9F7E1EAF2E04C
:1043000087E291E0DF019C011D9221503040E1F7EE
:104310001092A00210929F02EAE3F4E082E3DF0130
:104320001D928A95E9F7E6E3F4E084E0DF011D924F
:104330008A95E9F790E080E00895CF93DF93C091EC
:104340002901D0912A01CF3FDC0759F406D490937C
:104350002A018093290197FF09C0D0932A01C093B5
:10436000290184EF9FEFDF91CF91089590E080E0E5
:10437000FACF8230910528F480936C0490E080E0BD
:1043800008958FEF9FEF08954F925F926F927F9203
:10439000AF92BF92CF92DF92EF92FF920F931F9353
:1043A000CF93DF9300D0CDB7DEB71A821982009782
:1043B00009F479C06115710509F475C020912901CE
:1043C00030912A0107EF1FEF2F3F3F4F09F445C0FF
:1043D0006B015C01412C512C3201F12CE12C10E0DD
:1043E00000E09E012F5F3F4FA6014E195F09B50106
:1043F0006E0D7F1D8091290190912A0113D4892B84
:1044000009F04BC089819A81009741F4E114F104CD
:1044100029F420916C04222309F442C0E80EF91E0D
:10442000EC14FD04D0F480E8481684E858068EE1C8
:104430006806710420F560E070E0CB010E94D82D81
:104440002AE0420E511C611C711C0A3F4FEF1407F9
:1044500021F0043F8FEF1807A1F4C8010F900F90CF
:10446000DF91CF911F910F91FF90EF90DF90CF9050
:10447000BF90AF907F906F905F904F90089501EF45
:104480001FEF81E090E0013F2FEF120711F090E065
:1044900080E0892B09F4A5CFE0CF04EF1FEFDDCF3B
:1044A0000AEF1FEFDACF0FEF1FEFD7CF4F925F92D8
:1044B0006F927F92AF92BF92CF92DF92EF92FF9274
:1044C0000F931F93CF93DF9300D0CDB7DEB71A823F
:1044D0001982009709F479C06115710509F475C056
:1044E0002091290130912A0107EF1FEF2F3F3F4F05
:1044F00009F445C06B015C01412C512C3201F12CB7
:10450000E12C10E000E09E012F5F3F4FA6014E1905
:104510005F09B5016E0D7F1D8091290190912A01DF
:1045200034D3892B09F04BC089819A81009741F4DB
:10453000E114F10429F420916C04222309F442C00F
:10454000E80EF91EEC14FD04D0F480E4481682E471
:1045500058068FE06806710420F560E070E0CB013A
:104560000E94D82D2AE0420E511C611C711C0E3F86
:104570004FEF140721F0043F8FEF1807A1F4C80193
:104580000F900F90DF91CF911F910F91FF90EF90BF
:10459000DF90CF90BF90AF907F906F905F904F90E3
:1045A000089502EF1FEF81E090E0023F2FEF120726
:1045B00011F090E080E0892B09F4A5CFE0CF04EF63
:1045C0001FEFDDCF0EEF1FEFDACF0FEF1FEFD7CFCB
:1045D0008091290190912A018F3F980749F0B4D228
:1045E000892B49F48FEF9FEF90932A018093290143
:1045F00090E080E0089584EF9FEF0895CF92DF92DE
:10460000EF92FF920F931F93CF93DF9321E0411519
:10461000510509F020E04150510921112CC0DC0165
:10462000FB01D12CC12C21E022C03FEFC31AD30AD9
:104630007D010D911D91E701EA80FB80E016F106F6
:10464000A8F420813181E280F380F182E08233831B
:104650002283ED90FC9011979D0122503109E901D0
:10466000F982E88211961C930E9320E03296C416CC
:10467000D506D8F2D2CFDF91CF911F910F91FF9045
:10468000EF90DF90CF900895FC01680F791F90E0C4
:1046900080E0E617F70709F408952191820F911D34
:1046A000F8CF20916D04211113C047DE009791F4DB
:1046B000109273041092720410927104109270049C
:1046C00010926F0410926E0421E020936D040895FF
:1046D00084EF9FEF0895AF92BF92CF92DF92EF9257
:1046E000FF920F931F93CF93DF93009709F460C05D
:1046F0004630510508F45CC020916D04C7EFDFEF30
:10470000222309F449C08C01060F171FF801C0804D
:10471000D180C114D10409F44EC096012A5F3F4FE5
:104720004217530708F447C07C01809172049091AE
:10473000730493838283B6016C5F7F4F5801A60E8A
:10474000B71EC801A1DFF5019183808364E070E0AA
:10475000C8011ADEEC01892BF9F481E090E009DE52
:10476000B601C801049610DEEC01892B91F462E0D9
:1047700070E0C50109DEEC01892B59F4C701DBDBD0
:1047800080917204909173040196909373048093C6
:10479000720490E080E0EDDDCE01DF91CF911F91BA
:1047A0000F91FF90EF90DF90CF90BF90AF90089562
:1047B000CFEFDFEFF1CFC9EFDFEFEECF6F927F9258
:1047C0008F929F92AF92BF92CF92DF92EF92FF9221
:1047D0000F931F93CF93DF9300D000D0CDB7DEB7F8
:1047E000009709F47AC04115510509F476C020916B
:1047F0006D0407EF1FEF222309F44DC03A017B013E
:104800005C0164E070E0CE01019650DE8C01892BE2
:1048100009F041C009811A810115110509F45AC036
:10482000480186E0880E911CB701680D791D8091C2
:104830002B0190912C010BDD6C01009709F450C005
:10484000A70170E060E00E94E83089819A81AB8125
:10485000BC81EC0CFD1CF70181939193A193B19362
:104860007F0181E090E085DDB801C7011FDE892B63
:1048700031F562E070E0C701800F911F17DE8C01F7
:10488000892BE9F490E080E074DDF501D182C082EB
:10489000F30191828082C8010F900F900F900F90CA
:1048A000DF91CF911F910F91FF90EF90DF90CF900C
:1048B000BF90AF909F908F907F906F90089590E001
:1048C00080E057DDF50111821082F3011182108220
:1048D000C60131DB09EF1FEFDECF0FEF1FEFDBCF9C
:1048E00006EF1FEFD8CF0097A1F04115510589F0D1
:1048F0002115310571F0F90136966E177F0748F0E2
:10490000DC012D933C93DA01ED93FC9390E080E081
:1049100008958FEF9FEF0895AF92BF92CF92DF92ED
:10492000EF92FF920F931F93CF93DF93009709F4B9
:104930005FC04115510509F45BC06530710508F48D
:1049400057C020916D04C7EFDFEF222391F1DC0106
:10495000CD90DC9011971296ED91FC9196012A5F13
:104960003F4FC9EFDFEF2617370719F5C0916E04E7
:10497000D0916F04209749F521E030E030936F0427
:1049800020936E047A018C01F0937104E09370041B
:104990005601B4E0AB0EB11CB50176DE0A0D1B1D4D
:1049A000F801208131818217930729F5D701CD9233
:1049B000DC92CE01DF91CF911F910F91FF90EF908C
:1049C000DF90CF90BF90AF90089520917004309108
:1049D00071042F5F3F4FCCEFDFEFE217F30790F248
:1049E000CBEFDFEF2E173F0768F2D0E0C0E0CACF71
:1049F000CFEFDFEFDECFC3EFDFEFDBCF84E090E080
:104A0000089582E090E008958CEF9FEF089580E292
:104A100090E0089510927304109272041092710441
:104A20001092700410926F0410926E0490E080E077
:104A3000089590932C0180932B01089580916D042B
:104A4000882391F0C5DD009789F4109273041092C9
:104A50007204109271041092700410926F041092FC
:104A60006E0410926D04089590E080E00895009720
:104A700049F06115710531F0FC0111821082FB01D2
:104A8000118210820895F3CF089526E030E040E8C7
:104A900055E260E070E090E080E00C9465011F92C8
:104AA0000F920FB60F9211242F933F934F935F9362
:104AB0006F937F938F939F93AF93BF93EF93FF93E6
:104AC00086E997EE9093850080938400BFD0FF9194
:104AD000EF91BF91AF919F918F917F916F915F9176
:104AE0004F913F912F910F900FBE0F901F901895EF
:104AF00086E997EE9093850080938400AFE6B0E05E
:104B00008C918E7F8C93E0E8F0E080818C7F8083B5
:104B1000E1E8F0E08081877E80838081846080830B
:104B200080818C7F80838C9181608C930895EFE6E7
:104B3000F0E0808190819E7F90838170089581E074
:104B4000089510927404089568EE73E080E090E098
:104B50000E94D82D90E080E0089526E030E040E00B
:104B600052EC61E070E090E080E00E9465018BE42F
:104B700095E00E949F2E892B29F08BE495E00E94FE
:104B8000B92EF5CF90E080E00895CF92DF92EF92BA
:104B9000FF920F931F93CF93DF936B017A01E9018B
:104BA000198218828BE495E00E949F2E892B79F15F
:104BB0008601CC24C39482E0D82E809174048111A4
:104BC00011C08BE495E00E94B92E0297B1F7C09214
:104BD0007404F801D1928F0188819981019699839B
:104BE0008883EBCF888199818E159F0580F48BE4B3
:104BF00095E00E94B92E8F3F9807A1F3F8018193A9
:104C00008F0188819981019699838883EBCF90E009
:104C100080E0DF91CF911F910F91FF90EF90DF9097
:104C2000CF9008950F931F93CF93DF93EA018901EB
:104C30008BE495E00E944D30F801D183C08390E071
:104C400080E0DF91CF911F910F910895CF92DF9275
:104C5000EF92FF928091750491E0980F9093750404
:104C6000882369F021E030E03093770420937604C4
:104C700080937504FF90EF90DF90CF900895789423
:104C8000E0912E01F0912F01C688D788E08CF18C3D
:104C90000E945503B701A60190E080E00E94C70280
:104CA000F894809175048150E3CF0F931F93CF93B5
:104CB000DF9310922A0610922906B0D7E6DEC09143
:104CC0002E01D0912F01198218826FEF7FEFCB0157
:104CD0000E944A0370E060E090E080E00E94CA0118
:104CE000009709F03AC00E94C804F89478948A8129
:104CF0009B81BC01685F7F4F0E94CD01892B59F4D5
:104D00006FEF7FEFCB010E945D020E944403882376
:104D100011F081E08E8FF894EBDE0E944703882328
:104D200011F080E008C00E9444038111FACF81E0B5
:104D30009E8D9111F6CF8093290678940E94570D8D
:104D40008C0178948091290681110CC00E94D706AD
:104D50000E942903F89490E080E0DF91CF911F91A9
:104D60000F9108950E9427030E9447038823E1F0D2
:104D700081E080932A0690912A0681E0911180E0DB
:104D80008093290680912A068111D1DE0130110518
:104D900029F40E94570D892B09F4D3DE0E94570D88
:104DA0008C01CDDE71DECECF0E9444038111E0CFB5
:104DB00081E09E8D9111DDCF80E0DBCF5058BB2785
:104DC000AA270ED0DCC0CDD030F0D2D020F031F404
:104DD0009F3F11F41EF4C2C00EF4E095E7FBB8C08B
:104DE000E92FDED080F3BA176207730784079507AF
:104DF00018F071F49EF5F6C00EF4E0950B2EBA2F64
:104E0000A02D0B01B90190010C01CA01A0011124D0
:104E1000FF27591B99F0593F50F4503E68F11A167C
:104E2000F040A22F232F342F4427585FF3CF46950D
:104E300037952795A795F0405395C9F77EF41F162F
:104E4000BA0B620B730B840BBAF09150A1F0FF0FF9
:104E5000BB1F661F771F881FC2F70EC0BA0F621FE5
:104E6000731F841F48F4879577956795B795F795D5
:104E70009E3F08F0B3CF9395880F08F09927EE0F67
:104E800097958795089540D008F481E00895E894B7
:104E900009C097FB3EF490958095709561957F4F82
:104EA0008F4F9F4F9923A9F0F92F96E9BB27939530
:104EB000F695879577956795B795F111F8CFFAF440
:104EC000BB0F11F460FF1BC06F5F7F4F8F4F9F4F71
:104ED00016C0882311F096E911C0772321F09EE8CF
:104EE000872F762F05C0662371F096E8862F70E035
:104EF00060E02AF09A95660F771F881FDAF7880F0F
:104F00009695879597F90895990F0008550FAA0B64
:104F1000E0E8FEEF16161706E807F907C0F01216CC
:104F20001306E407F50798F0621B730B840B950BCF
:104F300039F40A2661F0232B242B252B21F4089524
:104F40000A2609F4A140A6958FEF811D811D0895C1
:104F500097F99F6780E870E060E008959FEF80EC2C
:104F6000089500240A9416161706180609060895CF
:104F700000240A9412161306140605060895092E35
:104F80000394000C11F4882352F0BB0F40F4BF2BA4
:104F900011F460FF04C06F5F7F4F8F4F9F4F0895E4
:104FA00057FD9058440F551F59F05F3F71F04795DA
:104FB000880F97FB991F61F09F3F79F087950895BF
:104FC000121613061406551FF2CF4695F1DF08C0DE
:104FD000161617061806991FF1CF869571056105FB
:104FE00008940895E894BB2766277727CB0197F9A3
:104FF00008958ADF08F48FEF08950BD0C0CFB1DF9A
:1050000028F0B6DF18F0952309F0A2CFA7CF11241E
:10501000EACFC6DFA0F3959FD1F3950F50E0551F5F
:10502000629FF001729FBB27F00DB11D639FAA27FD
:10503000F00DB11DAA1F649F6627B00DA11D661F4C
:10504000829F2227B00DA11D621F739FB00DA11D6D
:10505000621F839FA00D611D221F749F3327A00D27
:10506000611D231F849F600D211D822F762F6A2FC3
:1050700011249F5750408AF0E1F088234AF0EE0F48
:10508000FF1FBB1F661F771F881F91505040A9F755
:105090009E3F510570F05CCFA6CF5F3FECF3983E8A
:1050A000DCF3869577956795B795F795E7959F5FBC
:1050B000C1F7FE2B880F911D9695879597F9089556
:1050C00090E080E008958091AC049091AD04891B3C
:1050D000990B08959091AD048091AC042FEF3FEFB0
:1050E000981748F4E92FF0E0E255FB4F208130E0BB
:1050F0009F5F9093AD04C9010895E091AD04809144
:10510000AC04E81730F4F0E0E255FB4F808190E00A
:1051100008958FEF9FEF08950895CF93DF93EC01EB
:10512000E0918404F09185043097F1F09091AD0402
:105130008091AC049817C0F090E0292F30E026173A
:10514000370754F4DE01A20FB31F4C9122553B4F99
:10515000D9014C939F5FF1CF1092AD046093AC04E2
:10516000CB01DF91CF910994DF91CF910895E09128
:105170008604F0918704309729F010928A041092E7
:10518000890409940895CF93DF931F92CDB7DEB7BA
:105190006983209188042223F9F020918904203228
:1051A00058F021E030E0FC013383228390E080E07E
:1051B0000F90DF91CF91089580918A04E82FF0E05D
:1051C000E557FB4F998190838F5F80938A0480938A
:1051D000890481E090E0ECCF61E0CE01019606D138
:1051E000F8CFCF92DF92EF92FF920F931F93CF935E
:1051F000DF937C01CB018A0120918804222389F06E
:10520000EB016B01C40ED51ECC15DD0561F0699173
:10521000D701ED91FC910190F081E02DC701099536
:10522000F3CF642FE3D0C801DF91CF911F910F918D
:10523000FF90EF90DF90CF9008951092AD04109200
:10524000AC0410928A041092890497D087EB98E2FC
:10525000F9D08DE898E2F1C0CB01BA01B5C081E088
:10526000809388046093AB0410928A04109289049E
:1052700008950F93062F21E0409189046BE874E0B4
:105280008091AB04DBD110928A04109289041092B1
:1052900088040F9108954F925F926F927F92AF9220
:1052A000BF92CF92EF92FF920F931F93CF93DF9312
:1052B0005C01F62ED42F28013901EE2009F1CFDF51
:1052C000CE2DC43008F0C3E0C150B8F028E0C29F32
:1052D000C0011124A301920104C05695479537954A
:1052E00027958A95D2F7B901D501ED91FC910190EE
:1052F000F081E02DC5010995E7CF60E0C501B9DF78
:105300004D2FD13208F040E22C2D6EEA74E08F2D43
:10531000B8D01092AD048093AC04DF91CF911F916F
:105320000F91FF90EF90CF90BF90AF907F906F90D4
:105330005F904F900895CF92EF920F931F93C22EDC
:10534000E12C00E010E09801A6DF1F910F91EF9093
:10535000CF90089521E0EFCFE8E7F4E013821282C6
:1053600088EE93E0A0E0B0E084839583A683B783C2
:1053700088EB91E09183808308951092410581E04C
:1053800080933F0510923E0561E082E1ABD461E07D
:1053900083E1A8D4E9EBF0E080818E7F8083808177
:1053A0008D7F808388E48093B80085E48093BC007F
:1053B0000895ECEBF0E080818A7B808360E082E1FD
:1053C00091D460E083E18EC49B01AC0160E074E2A3
:1053D00084EF90E0B3D62051310941095109569527
:1053E0004795379527952093B80008952091F004AC
:1053F000260F3327331F21323105ECF4209141056C
:10540000FC0190E080E0243069F082E00895A091F2
:10541000F0042191AC014E505B4FA40FB52FB11D8C
:105420002C930196861798F38091F004680F60938F
:10543000F00480E0089581E008959093350580930D
:10544000340508959093370580933605089585ECCB
:105450008093BC00109241050895CF93DF9391E0B3
:1054600090933905882351F0C091B800D091BA00CB
:10547000A0DF83DFD093BA00C093B800DF91CF9153
:1054800008954F925F926F927F928F929F92AF9208
:10549000BF92CF92DF92EF92FF920F931F93CF9321
:1054A000DF93D82F162F072FC42FB22E413208F0CA
:1054B0009DC059D36B017C0180914105811173C05E
:1054C00081E080934105B0923F059FEF9093CE0419
:1054D000109213059C0F90931205809340058091C4
:1054E0004005DD0FD82BD093400580913E058130DB
:1054F00009F07EC010923E0536D36B017C0180918D
:1055000040058093BB0080913A0590913B05A091A6
:105510003C05B0913D05892B8A2B8B2B99F023D329
:1055200080903A0590903B05A0903C05B0903D05D9
:105530006C197D098E099F0986169706A806B9067B
:1055400008F451C08091BC0083FDD9CF85EC8093D5
:10555000BC0009D36B017C0180914105813009F4C5
:1055600049C0809113058C1710F4C0911305A4E174
:10557000B5E0912FE12FF02F8E2F891B8C1708F4A7
:105580005AC08C2FDF91CF911F910F91FF90EF9018
:10559000DF90CF90BF90AF909F908F907F906F9053
:1055A0005F904F90089580913A0590913B05A091AE
:1055B0003C05B0913D05892B8A2B8B2B09F47CCFC0
:1055C000D2D240903A0550903B0560903C057090D7
:1055D0003D056C197D098E099F0946165706680618
:1055E000790608F069CF8091380537DFC0E0C9CF70
:1055F00085EEADCF80913A0590913B05A0913C0599
:10560000B0913D05892B8A2B8B2B09F4A5CFABD20A
:1056100080903A0590903B05A0903C05B0903D05E8
:105620006C197D098E099F0986169706A806B9068A
:1056300008F092CFD8CF8D9181939ECF4F925F92F9
:105640006F927F928F929F92AF92BF92EF92FF9252
:105650000F931F93CF93DF93413208F0D2C0F22E05
:10566000D42FE72E162FC82F7ED24B015C018091DC
:10567000410581116DC082E08093410500933F0593
:105680008FEF8093CE0410921305D0931205912FC3
:10569000A4E1B5E0E12FFE2D8E2F891B8D1708F4B4
:1056A0008AC01092400580914005CC0FC82BC09352
:1056B000400580913E05813009F080C010923E0582
:1056C00052D24B015C01809140058093BB008091D8
:1056D0003A0590913B05A0913C05B0913D05892B81
:1056E0008A2B8B2B99F03FD200913A0510913B0504
:1056F00020913C0530913D05681979098A099B097B
:10570000061717072807390708F442C08091BC0024
:1057100083FDD9CF85EC8093BC0025D24B015C0181
:10572000FF2029F080914105823009F449C0809121
:10573000CE048F3F09F467C08091CE04803209F413
:1057400064C08091CE04803309F461C084E024C039
:1057500080913A0590913B05A0913C05B0913D05A3
:10576000892B8A2B8B2B09F482CFFDD140903A05EF
:1057700050903B0560903C0570903D056819790993
:105780008A099B09461657066806790608F06FCF06
:105790008091380562DE85E0DF91CF911F910F91F6
:1057A000FF90EF90BF90AF909F908F907F906F9001
:1057B0005F904F90089581918D936ECF85EEABCF22
:1057C00080913A0590913B05A0913C05B0913D0533
:1057D000892B8A2B8B2B09F4A3CFC5D100913A05D5
:1057E00010913B0520913C0530913D0568197909E0
:1057F0008A099B09061717072807390708F090CF71
:10580000C7CF81E0C9CF80E0C7CF82E0C5CF83E0BA
:10581000C3CF85ED8093BC0080913A0590913B0504
:10582000A0913C05B0913D050796A11DB11D23E057
:10583000B695A795979587952A95D1F72091BC00A5
:1058400024FD03C010924105089540913A055091FE
:105850003B0560913C0570913D05452B462B472B40
:1058600069F30097A105B10541F025E32A95F1F709
:1058700000000197A109B109E1CF80913805EDCD74
:105880001F920F920FB60F9211242F933F934F93B5
:105890005F936F937F938F939F93AF93BF93EF9398
:1058A000FF938091B900887F803609F44AC008F0E0
:1058B0003DC0883209F4A6C018F5803109F49AC0B9
:1058C000B8F4882309F4F6C0883009F493C0FF9136
:1058D000EF91BF91AF919F918F917F916F915F9168
:1058E0004F913F912F910F900FBE0F901F901895E1
:1058F000883109F487C0803251F78093CE0414C0F8
:10590000803409F49CC040F48033B9F38833F9F64D
:105910008093CE049CDDDBCF803509F484C08835CC
:1059200009F495C0883499F674DFD1CF883909F429
:105930008CC038F5883729F050F4883611F080375C
:1059400031F683E0809341051092CF0457C0883828
:1059500009F47BC0803919F0803809F0B8CF809104
:10596000CF04803208F071C0E091CF0481E08E0F47
:105970008093CF048091BB00F0E0E053FB4F808325
:105980003DC0803B39F0E0F4803A09F479C0883AB0
:1059900009F09DCF84E0809341051092F1041092AC
:1059A000F004E0913605F091370509958091F004F7
:1059B00081110FC081E08093F0041092F20409C0BD
:1059C000803C09F475C0883C09F472C0883B09F03A
:1059D0007ECFE091F10481E08E0F8093F104F0E03E
:1059E000EE50FB4F80818093BB009091F104809139
:1059F000F00429C0809140058093BB0085EC809322
:105A0000BC0065CF9091130580911205981758F549
:105A1000E091130581E08E0F80931305F0E0EC5EBA
:105A2000FA4F8081E9CFE091130581E08E0F8093DA
:105A300013058091BB00F0E0EC5EFA4F80839091FB
:105A40001305809112059817C8F285E8D8CFE09128
:105A5000130581E08E0F809313058091BB00F0E069
:105A6000EC5EFA4F808380913F0581115DCF81E02C
:105A700080933E0584EA8093BC001092410527CFB5
:105A8000E6DC8091CF04803230F4E091CF04F0E086
:105A9000E053FB4F10826091CF0470E0E091340539
:105AA000F091350580ED94E009951092CF040FCF69
:105AB00085ECE1CF1092CE0437CF1F920F920FB634
:105AC0000F9211242F933F938F939F93AF93BF9384
:105AD0008091430590914405A0914505B0914605FC
